:020000040800F2
:10000000008001207D8C0008CD8C0008CD8C00087C
:10001000CD8C0008CD8C0008CD8C000800000000BD
:1000200000000000000000000000000061700008F7
:10003000CD8C000800000000017100086571000807
:10004000CD8C0008CD8C0008CD8C0008CD8C00082C
:10005000CD8C0008A58B0008CD8C0008CD8C000845
:10006000CD8C0008CD8C0008CD8C0008CD8C00080C
:10007000CD8C0008CD8C0008CD8C0008CD8C0008FC
:10008000CD8C0008CD8C0008CD8C0008A98B000811
:10009000B98B0008CD8C0008CD8C0008C98B0008F6
:1000A000CD8C0008D58B0008CD8C0008CD8C0008C5
:1000B000E58B0008CD8C0008CD8C0008CD8C0008A5
:1000C000CD8C0008CD8C0008CD8C0008CD8C0008AC
:1000D000F58B0008CD8C0008058C0008CD8C00083D
:1000E000CD8C0008CD8C0008CD8C0008CD8C00088C
:1000F000CD8C0008CD8C0008CD8C0008CD8C00087C
:10010000CD8C0008158C0008CD8C0008CD8C000823
:10011000CD8C0008CD8C0008CD8C0008CD8C00085B
:10012000CD8C0008CD8C0008CD8C0008CD8C00084B
:10013000258C0008CD8C0008CD8C0008CD8C0008E3
:10014000CD8C0008CD8C0008CD8C0008CD8C00082B
:10015000CD8C0008CD8C0008CD8C0008CD8C00081B
:10016000CD8C0008CD8C0008CD8C0008CD8C00080B
:10017000CD8C0008CD8C0008CD8C0008000000005C
:08018000CD8C0008CD8C0008B5
:1001900010B5054C237833B9044B13B10448AFF3C1
:1001A00000800123237010BD180000200000000013
:1001B000408D000808B5034B1BB103490348AFF35A
:1001C000008008BD000000001C000020408D0008D9
:1001D00081F0004102E000BF83F0004330B54FEAF8
:1001E00041044FEA430594EA050F08BF90EA020F65
:1001F0001FBF54EA000C55EA020C7FEA645C7FEAF8
:10020000655C00F0E2804FEA5454D4EB5555B8BF1A
:100210006D420CDD2C4480EA020281EA030382EA8B
:10022000000083EA010180EA020281EA0303362D1D
:1002300088BF30BD11F0004F4FEA01314FF4801CF0
:100240004CEA113102D0404261EB410113F0004F02
:100250004FEA03334CEA133302D0524263EB4303B9
:1002600094EA050F00F0A780A4F10104D5F1200E57
:100270000DDB02FA0EFC22FA05F2801841F10001B2
:1002800003FA0EF2801843FA05F359410EE0A5F186
:1002900020050EF1200E012A03FA0EFC28BF4CF0B7
:1002A000020C43FA05F3C01851EBE37101F000456D
:1002B00007D54FF0000EDCF1000C7EEB00006EEB7A
:1002C0000101B1F5801F1BD3B1F5001F0CD3490804
:1002D0005FEA30004FEA3C0C04F101044FEA44525B
:1002E00012F5800F80F09A80BCF1004F08BF5FEAE2
:1002F000500C50F1000041EB045141EA050130BDC2
:100300005FEA4C0C404141EB010111F4801FA4F164
:100310000104E9D191F0000F04BF01460020B1FAB9
:1003200081F308BF2033A3F10B03B3F120020CDAF1
:100330000C3208DD02F1140CC2F10C0201FA0CF0CF
:1003400021FA02F10CE002F11402D8BFC2F1200C34
:1003500001FA02F120FA0CFCDCBF41EA0C019040EA
:10036000E41AA2BF01EB0451294330BD6FEA040433
:100370001F3C1CDA0C340EDC04F11404C4F120021E
:1003800020FA04F001FA02F340EA030021FA04F330
:1003900045EA030130BDC4F10C04C4F1200220FA87
:1003A00002F001FA04F340EA0300294630BD21FAC5
:1003B00004F0294630BD94F0000F83F4801306BF8B
:1003C00081F480110134013D4EE77FEA645C18BF7F
:1003D0007FEA655C29D094EA050F08BF90EA020F16
:1003E00005D054EA000C04BF1946104630BD91EA0E
:1003F000030F1EBF0021002030BD5FEA545C05D111
:100400004000494128BF41F0004130BD14F580044F
:100410003CBF01F5801130BD01F0004545F0FE41C3
:1004200041F470014FF0000030BD7FEA645C1ABFF8
:10043000194610467FEA655C1CBF0B46024650EA2F
:10044000013406BF52EA033591EA030F41F400215B
:1004500030BD00BF90F0000F04BF0021704730B5E1
:100460004FF4806404F132044FF000054FF00001B6
:1004700050E700BF90F0000F04BF0021704730B577
:100480004FF4806404F1320410F0004548BF40424C
:100490004FF000013EE700BF42004FEAE2014FEAA1
:1004A00031014FEA02701FBF12F07F4393F07F4F7C
:1004B00081F06051704732F07F4208BF704793F07F
:1004C0007F4F04BF41F40021704730B54FF4607492
:1004D00001F0004521F000411CE700BF50EA010295
:1004E00008BF704730B54FF000050AE050EA01023E
:1004F00008BF704730B511F0004502D5404261EBAE
:1005000041014FF4806404F132045FEA915C3FF4EE
:10051000D8AE4FF003025FEADC0C18BF03325FEA8B
:10052000DC0C18BF033202EBDC02C2F1200300FA3C
:1005300003FC20FA02F001FA03FE40EA0E0021FA61
:1005400002F11444BDE600BF70B54FF0FF0C4CF44F
:10055000E06C1CEA11541DBF1CEA135594EA0C0F01
:1005600095EA0C0F00F0DEF82C4481EA030621EA3C
:100570004C5123EA4C5350EA013518BF52EA033577
:1005800041F4801143F4801338D0A0FB02CE4FF029
:100590000005E1FB02E506F00042E0FB03E54FF059
:1005A0000006E1FB03569CF0000F18BF4EF0010E51
:1005B000A4F1FF04B6F5007F64F5407404D25FEA4D
:1005C0004E0E6D4146EB060642EAC62141EA555100
:1005D0004FEAC52040EA5E504FEACE2EB4F1FD0C42
:1005E00088BFBCF5E06F1ED8BEF1004F08BF5FEAC0
:1005F000500E50F1000041EB045170BD06F0004672
:1006000046EA010140EA020081EA0301B4EB5C041E
:10061000C2BFD4EB0C0541EA045170BD41F4801116
:100620004FF0000E013C00F3AB8014F1360FDEBF3B
:10063000002001F0004170BDC4F10004203C35DA17
:100640000C341BDC04F11404C4F1200500FA05F39A
:1006500020FA04F001FA05F240EA020001F000423B
:1006600021F0004110EBD37021FA04F642EB0601B1
:100670005EEA430E08BF20EAD37070BDC4F10C04DB
:10068000C4F1200500FA04F320FA05F001FA04F29F
:1006900040EA020001F0004110EBD37041F100018B
:1006A0005EEA430E08BF20EAD37070BDC4F1200596
:1006B00000FA05F24EEA020E20FA04F301FA05F2FE
:1006C00043EA020321FA04F001F0004121FA04F2A6
:1006D00020EA020000EBD3705EEA430E08BF20EA76
:1006E000D37070BD94F0000F0FD101F000464000B0
:1006F00041EB010111F4801F08BF013CF7D041EA32
:10070000060195F0000F18BF704703F00046520035
:1007100043EB030313F4801F08BF013DF7D043EA06
:100720000603704794EA0C0F0CEA135518BF95EABC
:100730000C0F0CD050EA410618BF52EA4306D1D143
:1007400081EA030101F000414FF0000070BD50EA62
:10075000410606BF1046194652EA430619D094EAEC
:100760000C0F02D150EA013613D195EA0C0F05D1D6
:1007700052EA03361CBF104619460AD181EA03012A
:1007800001F0004141F0FE4141F470014FF00000E2
:1007900070BD41F0FE4141F4780170BD70B54FF07D
:1007A000FF0C4CF4E06C1CEA11541DBF1CEA1355FD
:1007B00094EA0C0F95EA0C0F00F0A7F8A4EB0504DF
:1007C00081EA030E52EA03354FEA013100F08880D6
:1007D0004FEA03334FF0805545EA131343EA12639F
:1007E0004FEA022245EA111545EA10654FEA002654
:1007F0000EF000419D4208BF964244F1FD0404F50D
:10080000407402D25B084FEA3202B61A65EB030568
:100810005B084FEA32024FF480104FF4002CB6EB25
:10082000020E75EB030E22BFB61A754640EA0C00A5
:100830005B084FEA3202B6EB020E75EB030E22BFE5
:10084000B61A754640EA5C005B084FEA3202B6EB26
:10085000020E75EB030E22BFB61A754640EA9C00E5
:100860005B084FEA3202B6EB020E75EB030E22BFB5
:10087000B61A754640EADC0055EA060E18D04FEA73
:10088000051545EA16754FEA06164FEAC30343EA13
:1008900052734FEAC2025FEA1C1CC0D111F4801FE0
:1008A0000BD141EA00014FF000004FF0004CB6E7D9
:1008B00011F4801F04BF01430020B4F1FD0C88BF78
:1008C000BCF5E06F3FF6AFAEB5EB030C04BFB6EB83
:1008D000020C5FEA500C50F1000041EB045170BD76
:1008E0000EF0004E4EEA113114EB5C04C2BFD4EBA3
:1008F0000C0541EA045170BD41F480114FF0000E27
:10090000013C90E645EA060E8DE60CEA135594EAA2
:100910000C0F08BF95EA0C0F3FF43BAF94EA0C0FA5
:100920000AD150EA01347FF434AF95EA0C0F7FF41A
:1009300025AF104619462CE795EA0C0F06D152EA6E
:1009400003353FF4FDAE1046194622E750EA410652
:1009500018BF52EA43067FF4C5AE50EA41047FF463
:100960000DAF52EA43057FF4EBAE12E74A0011D215
:1009700012F5001211D20DD56FF47873B3EB6252F9
:100980000ED44FEAC12343F0004343EA505323FA05
:1009900002F070474FF00000704750EA013002D17A
:1009A0004FF0FF3070474FF00000704753B94AB91D
:1009B000002908BF00281CBF4FF0FF314FF0FF3067
:1009C00000F072B9ADF1080C6DE904CE00F006F844
:1009D000DDF804E0DDE9022304B070472DE9F047BB
:1009E000089E04468846002B4BD18A42154667D99B
:1009F000B2FA82F24AB1C2F1200701FA02F320FAF8
:100A000007F7954047EA030894404FEA154E230C38
:100A1000B8FBFEF71FFA85FC0EFB178843EA084374
:100A200007FB0CF1994209D9EB1807F1FF3080F070
:100A30001B81994240F21881023F2B445B1AA4B2F9
:100A4000B3FBFEF00EFB103344EA034400FB0CFC46
:100A5000A44509D92C1900F1FF3380F00781A44582
:100A600040F2048102382C4440EA0740A4EB0C0415
:100A700000271EB1D4400023C6E900433946BDE833
:100A8000F0878B4209D9002E00F0EB800027C6E9E1
:100A9000000138463946BDE8F087B3FA83F7002FE6
:100AA00047D18B4202D3824200F2FA80841A61EB72
:100AB000030301209846002EE0D0C6E90048DDE798
:100AC00002B9FFDEB2FA82F2002A40F08F80491BA1
:100AD0004FEA154E1FFA85F80127B1FBFEFC230CE7
:100AE0000EFB1C1143EA014308FB0CF1994207D9A4
:100AF000EB180CF1FF3002D2994200F2CD8084460F
:100B0000591AA3B2B1FBFEF00EFB101443EA0444E1
:100B100008FB00F8A04507D92C1900F1FF3302D2D9
:100B2000A04500F2B6801846A4EB080440EA0C4049
:100B30009FE7C7F1200CBB4022FA0CFE4EEA030EE1
:100B400001FA07F420FA0CF521FA0CF34FEA1E48DB
:100B50002543B3FBF8F92C0C08FB19331FFA8EFA66
:100B600044EA034309FB0AF49C4202FA07F200FA42
:100B700007F10BD91EEB030309F1FF3080F08780EA
:100B80009C4240F28480A9F1020973441B1BADB260
:100B9000B3FBF8F008FB103345EA034400FB0AFA04
:100BA000A24508D91EEB040400F1FF336BD2A24525
:100BB00069D90238744440EA0940A0FB0289A4EBD9
:100BC0000A044C45C2464B4654D351D0002E69D03E
:100BD000B1EB0A0564EB030404FA0CFCFD40FC4095
:100BE0004CEA0505C6E90054002747E7C2F1200397
:100BF00020FA03F7954001FA02F021FA03F34FEAD5
:100C0000154E3843010CB3FBFEF71FFA85F80EFBB7
:100C1000173341EA034107FB08F38B4204FA02F45D
:100C200007D9691807F1FF3C2FD28B422DD9023F1B
:100C30002944CB1A81B2B3FBFEF00EFB103341EA1C
:100C4000034100FB08F38B4207D9691800F1FF3C10
:100C500017D28B4215D902382944C91A40EA0747EE
:100C60003BE73746304609E70746E7E61846FBE626
:100C70004145ABD2B8EB020A69EB0E0201381346CC
:100C8000A4E76046E9E7184695E76746D1E781465D
:100C90007CE702382C4447E7ACF1020C2B442FE7E9
:100CA000384608E73746E9E6704700BF10B5094AFD
:100CB000136843F480731360032000F0EBFD002001
:100CC00007F034FF10B10124204610BD044607F0A0
:100CD000EFFCF9E700200240034A13680349096862
:100CE0000B441360704700BF940A012000000020ED
:100CF000014B1868704700BF940A012038B50446BC
:100D0000FFF7F6FF0546B4F1FF3F02D0044B1B6826
:100D10001C44FFF7EDFF401BA042FAD338BD00BFD3
:100D20000000002030B583B000230193002800F0BC
:100D3000F5800446436D03B323689A6812F0005FA0
:100D400005D09A6822F0204222F03F029A60226881
:100D5000936813F0805F1DD1936823F0104323F054
:100D60003F0343F0805393606D4B1B689B096D4AB2
:100D7000A2FB03239B09019309E007F0C1FC0023B8
:100D8000A36584F85030D7E7019B013B0193019B99
:100D9000002BF9D123689A6812F0805F40F08980B7
:100DA000626D42F010026265A26D42F00102A2651E
:100DB00001209A6812F0040F7DD00121626D12F0BB
:100DC000100F40F0A480002940F0A180626D22F451
:100DD000817242F0020262659B6813F0010F1BD121
:100DE000514B9B6813F0010F67D001214F4A926865
:100DF00012F0010F63D001230B434D4A926812F0A9
:100E0000010F5ED00122134306D1636849498A6805
:100E100022F47C1213438B60627E636B43EA42339D
:100E2000E2681343A268134394F8202043EA024384
:100E3000012A48D0A26A22B102F47072E16A0A4320
:100E400013432168CD683C4A2A401343CB60236892
:100E50009A6812F0040F3BD001219A6812F0080F33
:100E600038D00122B1B9AAB9217E94F830205200BD
:100E700042EA8131DA6822F4804222F002020A4317
:100E8000DA6094F83830012B26D02268136923F0F9
:100E9000010313612369012B30D02268136B23F007
:100EA0000F031363636D23F0030343F001036365D2
:100EB00032E000207DE7002180E7002196E7002353
:100EC0009AE700229FE7626A013A43EA4243B1E7A8
:100ED0000021C2E70022C5E721680B6923F4FF6304
:100EE00023F00403E26B256C2A43656C2A43A56C4E
:100EF0002A43134343F001030B61CBE721680B6BDB
:100F000023F00F03E269013A13430B63CAE7636DF1
:100F100043F010036365012003B030BD0120FBE7FF
:100F200010000020632D3E05000004500001045015
:100F3000000204500003045007C0F0FFF0B482B078
:100F40000022019290F85020012A00F018820346F6
:100F5000012280F850200268926812F0040F0AD033
:100F6000426D42F0200242650120002283F85020A9
:100F700002B0F0BC70474A68052A09D8023A032A31
:100F800000F28E80DFE802F0028285880C224A603F
:100F90001E684D680C6830362A0A920002F00C0276
:100FA000B05805F01F051F27AF4020EA0700C4F323
:100FB0008464AC402043B0501A68906810F0040F6D
:100FC00071D00120946814F0080F6ED0012450BB3A
:100FD0004CBB0E688D681432700E800000F0040067
:100FE0001458C6F304560727B74024EA0704B5404F
:100FF0002C4314504C691868C268C2F3C1025200F5
:1010000004FA02F20D69042D51D00E68603050F8D8
:101010002570B84C3C4006F0F8463243144344F087
:10102000004440F825401868826812F0010F16D17C
:101030000A68CD68D0F8B040C2F3120624EA06046C
:1010400005F01806AC4DF5402A40C2F312022243C7
:10105000C0F8B020C868A94A904200F083800A68AE
:10106000A7490A4200F08781A649896801F0E07427
:10107000A548824200F01481A448824200F05081C9
:10108000A348824200F0648100206EE712224A6089
:101090007EE718224A607BE74FF480724A6077E768
:1010A00006224A6074E700208CE700248FE7026E76
:1010B000046EC4F384640A68C2F312057DBBC2F3F4
:1010C0008462944230D01C68626E606EC0F38460AB
:1010D0000A68C2F3120565BBC2F3846290422DD048
:1010E0001C68A26EA06EC0F384600A68C2F3120589
:1010F0004DBBC2F3846290422AD01C68E26EE06E5F
:10110000C0F384600A68C2F3120535BBC2F384627F
:10111000904288D1E26E22F00042E26683E792FAC2
:10112000A2F2B2FA82F2CCE7026E22F0004202662C
:10113000C9E792FAA2F2B2FA82F2CFE7626E22F027
:1011400000426266CCE792FAA2F2B2FA82F2D2E7E9
:10115000A26E22F00042A266CFE792FAA2F2B2FAA1
:1011600082F2D5E71D680A68C2F3120696BB900E9C
:10117000013000F01F0009288CBF0020012000284A
:1011800052D09EBB940E0134A40604F0F844B6BBC2
:10119000900E013000F01F070120B8400443C6BB89
:1011A000920E013202F01F0202EB420212052243AC
:1011B0008C681435500E800000F004002E58C2F3E5
:1011C00004520727974026EA070604FA02F2324340
:1011D0002A5044E792FAA2F0B0FA80F0013000F011
:1011E0001F0009288CBF00200120C8E792FAA2F452
:1011F000B4FA84F40134A40604F0F844C7E792FA80
:10120000A2F0B0FA80F0013000F01F070120B840D2
:10121000C4E792FAA2F2B2FA82F2013202F01F029D
:1012200002EB42021205C2E7CEB9940E0134A406C5
:1012300004F0F844E6B9900E013000F01F070120D9
:10124000B8400443F6B9900E013000F01F0000EBE7
:1012500040021E3A120542F000722243A8E792FAB9
:10126000A2F4B4FA84F40134A40604F0F844E1E7EB
:1012700092FAA2F0B0FA80F0013000F01F070120CE
:10128000B840DEE792FAA2F0B0FA80F0013000F048
:101290001F0000EB40021E3A120542F00072DCE72C
:1012A00011F4000F7FF4E8AE1A681A498A4205D09B
:1012B00001F500718A4201D0002056E644F4000492
:1012C00010498A6822F0E07214438C60124A126856
:1012D00092091249A1FB0212920902EB420291000B
:1012E000019102E0019A013A0192019A002AF9D192
:1012F00000203AE600F0FF03FFFF070000007F40F8
:101300000000088000030450000052C7000084CB96
:10131000010000800000045010000020632D3E05F5
:1013200011F0807F7FF4ACAE1A6816498A4205D06E
:1013300001F500718A4201D0002016E644F0807267
:101340001148816821F0E0710A43826000200CE6B8
:1013500011F4800F11D119680A4A914201D000207E
:1013600003E644F480020848816821F0E0710A43F2
:1013700082600020F9E50020F7E50020F5E5022075
:10138000F6E500BF000004500003045090F8502020
:10139000012A00F0958030B49AB00346012280F80B
:1013A00050200268474882423FD0002001900198B7
:1013B00000283ED0806810F0040F43D001209268CE
:1013C00012F0040F6DD100286BD10A68002A41D0B9
:1013D0003D4CA26822F46042486893F8305040EADD
:1013E00045300243A260374A926812F0010F2BD0B9
:1013F0000120364A926812F0010F27D001220243E1
:101400003348806810F0010F22D00120024353D1ED
:101410002D4CA26822F4716222F00F0208688968DC
:1014200001430A43A260002040E000F58070019073
:10143000BDE75A6D42F020025A65002283F8502021
:10144000012036E00020BAE70020D2E70022D6E7EC
:101450000020DBE71C48816821F460418160194964
:10146000896811F0010F18D001201849896811F01E
:10147000010F14D0012101431548806810F0010FBD
:1014800000D001220A4319D10F498A6822F47162FF
:1014900022F00F028A60002008E01046E5E71146BE
:1014A000E9E75A6D42F020025A650120002283F8D4
:1014B00050201AB030BC70470020F7E70020F5E755
:1014C0000220704700000450000304500001045043
:1014D00000020450002800F0A18038B5044690F8BE
:1014E0002030D3B12268136823F002031360FFF7A2
:1014F000FFFB054623685A6812F0020F10D0FFF771
:10150000F7FB401B0A28F5D9636A43F40033636292
:10151000052384F82030012038BD07F023F9E1E7E6
:101520001A6842F001021A60FFF7E2FB05462368E1
:101530005A6812F0010F0DD1FFF7DAFB401B0A28A1
:10154000F5D9636A43F400336362052384F82030DD
:101550000120E1E7227E012A3DD01A6822F08002B4
:101560001A60637E012B3BD02268136823F040038E
:101570001360A37E012B39D02268136823F0200367
:101580001360E37E012B37D02268136843F0100309
:101590001360237F012B35D02268136823F00803E2
:1015A0001360637F012B33D02268136823F0040398
:1015B0001360A368E268134322691343626913430B
:1015C0006268013A21681343CB6100206062012305
:1015D00084F82030A0E71A6842F080021A60C0E761
:1015E0002268136843F040031360C2E7226813685F
:1015F00043F020031360C4E72268136823F010034C
:101600001360C6E72268136843F008031360C8E755
:101610002268136843F004031360CAE7012070478F
:101620007047704770477047704770477047704702
:10163000704770477047704770472DE9F84F05466F
:1016400003685C695F689E68D3F80C90D3F81080DB
:10165000D3F818A014F0010F5AD016F0010F17D0CC
:1016600001229A6016F0020F08D116F0040F30D153
:1016700016F0080F07D04FF4805B0BE0FFF7D0FFA8
:101680004FF0000B06E0FFF7CEFF4FF0000B01E03C
:101690004FF0000B16F4807F0BD02B684FF4807254
:1016A0009A6016F4007F17D116F4806F18D04BF4AF
:1016B000005B16F4803F2DD02B684FF480329A6087
:1016C00016F4003F16D116F4802F17D04BF4004BC0
:1016D00020E04FF4006BDDE72846FFF7A2FFE8E7C4
:1016E00016F4006F02D04BF4804BE2E72846FFF778
:1016F0009BFFDEE72846FFF795FF0BE016F4002F6F
:1017000002D04BF4803B05E02846FFF78EFF01E056
:101710004FF0000B14F0080F07D019F0100F04D091
:101720004BF4007B2B681022DA6014F0040F02D017
:1017300019F0080F60D114F0020F04D02B68DB6899
:1017400013F0030F5FD114F0400F07D018F0100F03
:1017500004D04BF4806B2B6810221A6114F0200F18
:1017600002D018F0080F52D114F0100F04D02B68DB
:101770001B6913F0030F51D114F4003F02D017F08E
:10178000100F4FD114F4803F02D017F0080F50D142
:1017900014F4004F67D017F0040F61D014F4807F69
:1017A00004D01AF0010F01D04BF0010B14F4007FAC
:1017B00004D01AF0020F01D04BF0020B14F4806F2A
:1017C00004D01AF0040F01D04BF0040B14F4006F96
:1017D00046D01AF0700A43D0BAF1300F48D02FD952
:1017E000BAF1500F47D0BAF1600F47D0BAF1400FAD
:1017F00031D14BF0400B2EE02B680822DA602846EE
:10180000FFF715FF97E72846FFF710FF9BE72B68C8
:1018100008221A612846FFF70CFFA5E72846FFF7C4
:1018200007FFA9E72B6810225A602846FFF702FF3E
:10183000A8E72B6808225A602846FFF7FCFEA7E7B6
:10184000BAF1100F05D0BAF1200F04D14BF0100BF4
:1018500001E04BF0080B2A68936923F07003936151
:101860002B6804225A60BBF1000F0AD1BDE8F88F43
:101870004BF0200BEFE74BF0800BECE74BF4807B59
:10188000E9E76B6A43EA0B036B622846FFF7D4FE75
:10189000ECE70000074AD36823F4E0631B041B0C49
:1018A000000200F4E060184340F0BF6040F40030F4
:1018B000D060704700ED00E030B4174BDB68C3F335
:1018C0000223C3F10704042C28BF04241D1D062D88
:1018D00018D9033B4FF0FF3505FA04F421EA04015F
:1018E000994005FA03F322EA0303194300280BDBAE
:1018F0000901C9B200F1604000F5614080F80013B1
:1019000030BC70470023E5E700F00F000901C9B2C1
:10191000024B1954F4E700BF00ED00E014ED00E0C5
:10192000002807DB00F01F02400901239340024A10
:1019300042F82030704700BF00E100E0002838D0B6
:1019400010B50446437F1BB30223637723791BBB87
:101950002368194A5A612268936823F01803936038
:10196000637913BB23684FF0FF321A6122689368D2
:1019700023F0600361690B4393602268936823F04E
:101980008003A1690B43936001236377002010BD9E
:10199000037706F02DFFD7E7E268A168204600F044
:1019A0000DF80028DCD00120F1E7236822691A61D4
:1019B000DCE70120704700BFB71DC10430B41F240D
:1019C000651E3CB105F01F0321FA03F32C4613F00A
:1019D000010FF5D0182A23D8DFE802F00F222222C7
:1019E000222222221E222222222222221A222222E3
:1019F000222222220D00062D14D8036859610168A5
:101A00008B6823F018031A438A60002030BC7047AB
:101A1000072DF2D90120F9E70F2DEED90120F5E7C6
:101A20000120F3E70120F1E770B4446C04F01C05D9
:101A3000066C0124AC407460046863608368102BFA
:101A400005D0036899600368DA6070BC704703686A
:101A50009A600368D960F8E7002869D010B403469B
:101A60000168344A914245D8334A0A443349A1FBBC
:101A70000212120992004264314A0264022283F87F
:101A800025201868016821F4FF4121F070019A684F
:101A9000DC6822431C6922435C6922439C6922431F
:101AA000DC6922431C6A22430A4302609A68B2F549
:101AB000804F15D0196C224A914226D0214A1168D4
:101AC000586C00F01C040F20A04021EA00011160B6
:101AD000116858685C6C04F01C04A040014311605C
:101AE0000020D863012283F8252083F824005DF8C4
:101AF000044B7047144A0A441049A1FB0212120910
:101B000092004264114A0264B8E7A8321168586C26
:101B100000F01C040F20A04021EA000111601168B0
:101B200058685C6C04F01C04A04001431160D7E7C6
:101B30000120704707040240F8FFFDBFCDCCCCCC9C
:101B400000000240A8040240F8FBFDBF0004024070
:101B500038B590F82440012C33D0012480F824407B
:101B600090F82540E4B2012C04D0002380F8243002
:101B7000022038BD0446022084F825000020E063DE
:101B80002568286820F0010028602046FFF74CFFF8
:101B9000236B5BB12268136843F00E031360226865
:101BA000136843F0010313600020E2E72268136822
:101BB00023F0040313602268136843F00A031360E0
:101BC000EDE70220D5E708B590F82530DBB2022B0F
:101BD00003D00423C363012008BD0268136823F007
:101BE0000E0313600268136823F001031360436C53
:101BF00003F01C03016C012202FA03F34B6080F82E
:101C00002520002380F82430836B13B198470020EF
:101C1000E2E70020E0E738B5036C1968046825683E
:101C2000436C03F01C0304229A400A4215D015F0BD
:101C3000040F12D0236813F0200F03D1236823F080
:101C400004032360436C03F01C02016C04239340E3
:101C50004B60036B03B1984738BD02229A400A4299
:101C60001CD015F0020F19D0236813F0200F06D1F5
:101C7000236823F00A032360012380F82530436C96
:101C800003F01C02016C022393404B60002380F898
:101C90002430C36A002BDFD09847DDE7082202FA20
:101CA00003F30B42D8D015F0080FD5D0236823F0EA
:101CB0000E032360436C03F01C03016C012202FA43
:101CC00003F34B60C26380F82520002380F82430A2
:101CD000436B002BC0D09847BEE70000F0B482B041
:101CE000002341E0D0F82CC02CEA040CC6F3C00459
:101CF0009C4044EA0C04C46286E0062400E0002410
:101D0000B4403C430235664E46F82540654C256894
:101D1000D44304EA05064F6817F4803F01D042EA35
:101D20000506604D2E606D6804EA05064F6817F4DD
:101D3000003F01D042EA05065A4D6E60AD6804EAE4
:101D400005064F6817F4801F01D042EA0506554D7D
:101D5000AE60ED682C404E6816F4001F01D042EAD8
:101D60000504504AD46001330A6832FA03F400F0E3
:101D7000938001249C402240F5D04D68022D01D073
:101D8000122D10D1DE08083650F826C003F00705E2
:101D9000AF000F25BD402CEA050C0D69BD4045EA9A
:101DA0000C0540F8265006685F000325BD40ED4352
:101DB00005EA060C4E6806F00306BE4046EA0C062D
:101DC00006604E6806F1FF3CBCF1010F03D9112EED
:101DD00001D0122E11D1866805EA060CCE68BE40ED
:101DE00046EA0C068660466826EA040C4E68C6F38E
:101DF00000169E4046EA0C0646604E6806F0030C4C
:101E0000BCF1030F3FF46EAFC46825408C68BC4042
:101E10002C43C4604C6814F0805FA4D0224C256E23
:101E200045F001052566246E04F001040194019C2F
:101E30009D08AE1C1A4C54F8267003F00304A6004B
:101E40000F24B44027EA0407B0F1904F3FF457AF96
:101E5000164CA04216D004F58064A04214D004F5BC
:101E60008064A04212D004F58064A04210D004F532
:101E70008064A0420ED004F58064A0423FF43DAFE0
:101E800007243DE701243BE7022439E7032437E731
:101E9000042435E7052433E702B0F0BC704700BFE7
:101EA000000001400004014000100240000400480E
:101EB0000369194201D100207047012070470AB917
:101EC00081627047816170477047000008B5054B1B
:101ED0005B69034200D108BD024B5861FFF7F4FF74
:101EE000F9E700BF00040140F0B58BB0002800F016
:101EF00091800446056890F8BD3323B3032384F82A
:101F0000BD33EB6B13F4807F01D100232361206884
:101F100003F069FE254655F8107B6E460FCD0FC6BF
:101F20000FCD0FC695E8030086E80300231D0ECBF6
:101F3000384603F01FFE58B1022384F8BD33012553
:101F400028460BB0F0BD80F8BC3306F09BFDD5E70A
:101F50000021206803F04DFE002315E0D900C81AC7
:101F600082002244012082F83D0082F83C30A2F831
:101F70004230002082F83F0050649064CA1A9100F9
:101F8000214408650133DBB26568AB42E6D3002328
:101F900015E0D800C11A8A002244002182F8FD1100
:101FA00082F8FC3182F8FF11C2F80412C2F808125C
:101FB000C21A90002044C0F810120133DBB29D42D7
:101FC000E7D8254655F8107B6E460FCD0FC60FCDCE
:101FD0000FC695E8030086E80300231D0ECB3846A4
:101FE00003F04EFE054660B9002384F83830012323
:101FF00084F8BD33636A012B08D0206803F0EEFE3D
:102000009EE7022384F8BD33012599E7204600F0BE
:1020100003F8F2E7012593E7034602680121C0F8BF
:10202000FC13002083F8F403936943F00063936189
:10203000536D43F0805343F0030353657047000032
:10204000024A136843F480731360704700700040C5
:10205000024B186800F4C060704700BF0070004079
:10206000B0F5007F0FD01F4B1B6803F4C063B3F5BE
:10207000806F34D01B4A136823F4C06343F4806339
:10208000136000207047174B1B6803F4C063B3F55F
:10209000007F22D0134A136823F4C06343F4007313
:1020A0001360114B1A68322303FB02F30F4AA2FBA1
:1020B00003239B0C013300E0013B0A4A526912F4EE
:1020C000806F01D0002BF7D1064B5B6913F4806F52
:1020D00001D1002070470320704700207047002086
:1020E000704700BF007000401000002083DE1B43DB
:1020F000024A536843F480635360704700700040A5
:1021000030B583B00546204B9B6D13F0805F0BD03C
:10211000FFF79EFFB0F5007F17D0802D1FD82DD080
:10212000702D2DD000211BE0174CA36D43F0805380
:10213000A365A36D03F080530193019BFFF788FF14
:10214000A36D23F08053A365E4E7802D03D9A02D70
:1021500003D9022104E0002102E0012100E0032173
:102160000A4A136823F007030B431360136803F054
:1021700007038B4206D0012003B030BD0221EFE7F8
:102180000121EDE70020F7E70010024000200240A7
:10219000284A9368D26802F0030213F00C030AD0B5
:1021A0000C2B06D0042B1FD0082B20D00020024679
:1021B00010E0012AF6D11F4A126812F0080F0CD164
:1021C0001C4AD2F89420C2F303221B4951F8222062
:1021D00043B100200C2B0DD07047164A1268C2F391
:1021E0000312F2E71046F5E714480022F2E714481C
:1021F0000022EFE70F4BDB6803F00303022B15D03F
:10220000032B15D00B4BD868C0F302100130D968EE
:10221000C1F3062102FB01F2B2FBF0F2D868C0F371
:10222000416001304000B2FBF0F0D5E7034AE9E736
:10223000034AE7E700100240888D00080024F400FC
:1022400000127A00002800F0D182F0B583B0044675
:10225000AD4B9D6805F00C05DE6806F003060368CB
:1022600013F0100F5ED0E5B10C2D18D0A369002B30
:1022700000F0B880A44A136843F001031360FEF72E
:1022800037FD0746A04B1B6813F0020F40F0978004
:10229000FEF72EFDC01B0228F4D90323B9E2012E5C
:1022A000E4D1994B1B6813F0020F03D0A369002BF4
:1022B00000F09F82206A944B1B6813F0080F5ED0D9
:1022C000914B1B6803F0F00398425FD9FFF718FFAA
:1022D000002840F097828C4B1A6842F008021A607E
:1022E0001A6822F0F002216A0A431A605A6822F43E
:1022F0007F42E16942EA01225A60FFF749FF824BBF
:102300009B68C3F30313814AD35C03F01F03D840D7
:102310007F4B18607F4B186806F008FC03460028C6
:1023200040F07782236813F0010F7AD0082D6FD028
:102330000C2D6BD06368B3F5803F00F09180B3F54E
:10234000A02F00F09380704B1A6822F480321A603C
:102350001A6822F480221A606368002B00F09380D0
:10236000FEF7C6FC0746684B1B6813F4003F58D1C4
:10237000FEF7BEFCC01B6428F5D9032349E2624B7B
:10238000D3F894301B0903F0F0039DE75E4B1A6805
:1023900042F008021A601A6822F0F002216A0A4329
:1023A0001A605A6822F47F42E16942EA01225A60C7
:1023B000206AFFF7A5FE00289FD0012329E2524B97
:1023C0001A6842F008021A601A6822F0F002216AC4
:1023D0000A431A605A6822F47F42E16942EA012204
:1023E0005A609FE7484A136823F001031360FEF721
:1023F0007FFC0746444B1B6813F0020F92D0FEF798
:1024000077FCC01B0228F5D9032302E2032E91D1E9
:102410003D4B1B6813F4003F03D06368002B00F0B2
:10242000F381236813F0020F4FD0042D3CD00C2D04
:1024300038D0E368002B78D0334A136843F48073B4
:102440001360FEF755FC06462F4B1B6813F4806F94
:1024500062D1FEF74DFC801B0228F5D90323D8E199
:10246000294A136843F48033136075E703F180430E
:10247000A3F53C331A6842F480221A601A6842F4C9
:1024800080321A6068E7FEF733FC07461E4B1B6874
:1024900013F4003FC5D0FEF72BFCC01B6428F5D910
:1024A0000323B6E1022EC4D1174B1B6813F4806FCF
:1024B00003D0E368002B00F0A981134A536823F08E
:1024C000F853216943EA01635360236813F0080F4E
:1024D00056D06369002B3CD00B4AD2F8943043F0BD
:1024E0000103C2F89430FEF703FC0646064BD3F80E
:1024F000943013F0020F43D1FEF7FAFB801B022841
:10250000F4D9032385E100BF00100240B88D000814
:102510001000002004000020B74A536823F0F8534D
:10252000216943EA01635360CFE7B34A136823F498
:1025300080731360FEF7DCFB0646AF4B1B6813F499
:10254000806FC2D0FEF7D4FB801B0228F5D903238D
:102550005FE1A94AD2F8943023F00103C2F8943025
:10256000FEF7C6FB0646A44BD3F8943013F0020FD7
:1025700006D0FEF7BDFB801B0228F4D9032348E1F7
:10258000236813F0040F7AD09B4B9B6D13F0805F90
:102590000BD1994B9A6D42F080529A659B6D03F076
:1025A00080530193019B012600E00026934B1B689A
:1025B00013F4807F26D0A368012B37D0052B3DD0A4
:1025C0008D4BD3F8902022F00102C3F89020D3F86D
:1025D000902022F00402C3F89020A368002B3BD087
:1025E000FEF786FB0746844BD3F8903013F0020FBA
:1025F00044D1FEF77DFBC01B41F288339842F2D9EB
:10260000032306E17D4A136843F480731360FEF7E9
:102610006FFB0746794B1B6813F4807FCBD1FEF725
:1026200067FBC01B0228F5D90323F2E0724AD2F8F7
:10263000903043F00103C2F89030CEE76E4BD3F8F0
:10264000902042F00402C3F89020D3F8902042F08A
:102650000102C3F89020C0E7FEF74AFB0746664B2D
:10266000D3F8903013F0020F08D0FEF741FBC01BE7
:1026700041F288339842F2D90323CAE05EBBA36AD1
:10268000002B00F0C5800C2D76D0022B29D05A4BA0
:102690001A6822F080721A601B6813F0205F04D160
:1026A000554AD36823F00303D360534AD36823F019
:1026B000887323F48033D360FEF71AFB04464E4B35
:1026C0001B6813F0007F55D0FEF712FB001B022899
:1026D000F5D903239DE0484A936D23F08053936519
:1026E000CDE7454A136823F080731360FEF700FBC3
:1026F0000546414B1B6813F0007F06D0FEF7F8FA41
:10270000401B0228F5D9032383E03B4AD3683C49A8
:102710001940E36A206B013843EA0013606B43EA17
:102720000023E06B4008013843EA4053206C400826
:10273000013843EA4063A06B000943EA40430B437E
:10274000D360136843F080731360D36843F08073E1
:10275000D360FEF7CDFA0446274B1B6813F0007FC9
:1027600006D1FEF7C5FA001B0228F5D9032350E075
:1027700000234EE000234CE0012B4DD01E4BDB68C4
:1027800003F00301E26A914201D0012341E003F02A
:102790007002216B0139B2EB011F01D0012338E037
:1027A00003F4FE42616BB2EB012F01D0012330E054
:1027B00003F40031A26B073A18BF0122914201D005
:1027C000012326E003F4C001E26B5208013AB1EBA9
:1027D000425F01D001231CE003F0C063226C520869
:1027E000013AB3EB426F19D0012312E001231846DE
:1027F000704701230DE000BF001002400070004050
:102800008C809DF9012304E0012302E0012300E014
:102810000023184603B0F0BD0123FAE70023F8E7D0
:10282000002800F09B8070B504464E4B1B6803F0F7
:1028300007038B420CD24B4A136823F007030B4368
:102840001360136803F007038B4201D0012070BDB1
:102850000D46236813F0010F39D06368032B09D0AC
:10286000022B26D063BB404A126812F0020F06D139
:102870000120ECE73C4A126812F0007F70D03A4920
:102880008A6822F0030213438B60FEF731FA064692
:10289000354B9B6803F00C036268B3EB820F16D0D4
:1028A000FEF726FA801B41F288339842F0D90320C4
:1028B000CDE72D4A126812F4003FE0D10120C6E7AF
:1028C000294A126812F4806FD9D10120BFE723682A
:1028D00013F0020F06D0244A936823F0F003A16896
:1028E0000B4393601F4B1B6803F00703AB420CD9EB
:1028F0001C4A136823F007032B431360136803F08B
:102900000703AB4201D00120A1E7236813F0040FB5
:1029100006D0154A936823F4E063E1680B439360A3
:10292000236813F0080F07D00F4A936823F460530D
:10293000216943EAC1039360FFF72AFC0A4B9B68B5
:10294000C3F30313094AD35C03F01F03D840084BB9
:102950001860084B186806F0E9F878E7012070471E
:10296000012074E70020024000100240B88D0008EA
:102970001000002004000020014B1868704700BFC1
:102980001000002008B5FFF7F7FF054B9B68C3F365
:102990000223044AD35C03F01F03D84008BD00BFE4
:1029A00000100240C88D000808B5FFF7E5FF054B91
:1029B0009B68C3F3C223044AD35C03F01F03D840CF
:1029C00008BD00BF00100240C88D00080F2303603F
:1029D0000B4B9A6802F0030242609A6802F0F00220
:1029E00082609A6802F4E062C2609B68DB0803F4CC
:1029F000E0630361034B1B6803F007030B60704740
:102A00000010024000200240F8B55A4BDB6813F07A
:102A1000030F18D0574BDB6803F00303026893429F
:102A200002D001252846F8BD002A00F0A080514BB5
:102A3000DB68C3F3021301334268934201D00125DE
:102A4000F0E700251AE00368022B59D0032B5ED073
:102A5000012B01D001250FE0464A126812F0020F47
:102A600061D0444DEA6822F073024468013C43EAB5
:102A700004131343EB600025002DD3D10F46044609
:102A80003C4A136823F080631360FEF731F9064671
:102A9000384B1B6813F0006F05D0FEF729F9801B37
:102AA0000228F5D90325002DBCD1002F3DD1314995
:102AB0000B6923F41F3323F44073A068E268120902
:102AC000520442EA002213430B612A4A136843F07E
:102AD00080631360FEF70CF90646264B1B6813F063
:102AE000006F05D1FEF704F9801B0228F5D90325F4
:102AF000002D97D11F4A1369A1690B43136191E718
:102B00001C4A126812F4806FABD10125B4E7194A50
:102B1000126812F4003FA4D1164A126812F4802FF2
:102B20009FD10125A8E70125A6E7012F0FD0114865
:102B3000026922F0C06222F4FE42A16863695B0868
:102B4000013B5B0643EA012313430361BDE70948E8
:102B5000026922F4C00222F4FE42A16823695B08E4
:102B6000013B5B0543EA012313430361ADE7012504
:102B700058E700BF00100240F8B5514BDB6813F076
:102B8000030F18D04E4BDB6803F003030268934237
:102B900002D001252846F8BD002A00F08E80484B5F
:102BA000DB68C3F3021301334268934201D001256D
:102BB000F0E700251AE00368022B59D0032B5ED002
:102BC000012B01D001250FE03D4A126812F0020FDF
:102BD00061D03B4DEA6822F073024468013C43EA4D
:102BE00004131343EB600025002DD3D10F46044698
:102BF000334A136823F080531360FEF779F80646D2
:102C00002F4B1B6813F0005F05D0FEF771F8801B97
:102C10000228F5D90325002DBCD1002F3DD128492C
:102C20004B6923F41F3323F44073A068E268120950
:102C3000520442EA002213434B61214A136843F0D5
:102C400080531360FEF754F806461D4B1B6813F0C3
:102C5000005F05D1FEF74CF8801B0228F5D903254B
:102C6000002D97D1164A536961690B43536191E76F
:102C7000134A126812F4806FABD10125B4E7104AF1
:102C8000126812F4003FA4D10D4A126812F4802F8A
:102C90009FD10125A8E70125A6E70948426922F04E
:102CA000C06222F4FE42A16823695B08013B5B0617
:102CB00043EA012313434361BFE701256AE700BFED
:102CC000001002402DE9F04182B00446036813F47D
:102CD000006F2FD0436EB3F5800F25D008D9B3F520
:102CE000000F10D0B3F5400F40F09980002610E09F
:102CF000002B40F0948000210430FFF785FE06464B
:102D00003EB1374618E05E4AD36843F48033D3605F
:102D100000265B4AD2F8883023F44003616E0B43EF
:102D2000C2F88830002707E000212030FFF724FF99
:102D30000646E5E700273E46236813F4805F15D07A
:102D4000A36EB3F1807F7AD06CD9B3F1007F70D0DD
:102D5000B3F1407F7AD1002E7BD1494AD2F8883036
:102D600023F04073A16E0B43C2F88830236813F43C
:102D7000003F00F08E80424B9B6D13F0805F6AD164
:102D80003F4B9A6D42F080529A659B6D03F08053E1
:102D90000193019B4FF001083A4A136843F4807392
:102DA0001360FDF7A5FF0546364B1B6813F4807FC3
:102DB00005D1FDF79DFF401B0228F5D90326002E03
:102DC00062D12F4BD3F8903013F4407316D0D4F85F
:102DD00084209A4212D02A4AD2F8903023F44073C9
:102DE000D2F8901041F48031C2F89010D2F89010CF
:102DF00021F48031C2F89010C2F8903013F0010F26
:102E00002CD1002E40F043811D4AD2F8903023F49B
:102E10004073D4F884100B43C2F8903035E001279A
:102E20003E4689E793B90021201DFFF7EDFD0646D8
:102E300091E7134AD36843F48033D3608BE70021D2
:102E400004F12000FFF798FE064684E701273E467E
:102E50008CE737468AE74FF000089DE7FDF748FF0B
:102E60000546074BD3F8903013F0020FC9D1FDF798
:102E70003FFF401B41F288339842F2D90326C0E756
:102E800000100240007000403746B8F1000F40F0DB
:102E90000081236813F0010F08D09D4AD2F88830D2
:102EA00023F00303A16B0B43C2F88830236813F0AF
:102EB000020F08D0964AD2F8883023F00C03E16B59
:102EC0000B43C2F88830236813F0040F08D0904AEF
:102ED000D2F8883023F03003216C0B43C2F88830DD
:102EE000236813F0080F08D0894AD2F8883023F0FD
:102EF000C003616C0B43C2F88830236813F0100FD5
:102F000008D0834AD2F8883023F44073A16C0B4375
:102F1000C2F88830236813F0200F08D07C4AD2F81A
:102F2000883023F44063E16C0B43C2F88830236897
:102F300013F4007F08D0764AD2F8883023F4402377
:102F4000E16D0B43C2F88830236813F4806F08D01A
:102F50006F4AD2F8883023F44013216E0B43C2F835
:102F60008830236813F0400F08D0694AD2F88830BF
:102F700023F44053216D0B43C2F88830236813F0CB
:102F8000800F08D0624AD2F8883023F44043616D44
:102F90000B43C2F88830236813F4807F08D05C4A62
:102FA000D2F8883023F44033A16D0B43C2F8883047
:102FB000236813F4005F0FD0554AD2F8883023F00D
:102FC0004063E16E0B43C2F88830E36EB3F1006FEB
:102FD00065D0B3F1806F67D0236813F4002F0FD052
:102FE0004B4AD2F8883023F04063216F0B43C2F87C
:102FF0008830236FB3F1006F5ED0B3F1806F60D083
:10300000236813F4802F0FD0414AD2F8883023F080
:103010004063616F0B43C2F88830636FB3F1006F98
:1030200057D0B3F1806F59D0236813F4804F0FD07D
:10303000374AD2F8883023F04053A16F0B43C2F8CF
:103040008830A36FB3F1805F50D0B3F1005F55D0EB
:10305000236813F4004F08D02D4AD2F8883023F0AB
:103060008043E16F0B43C2F88830236813F4803F3C
:1030700009D0274AD2F8883023F00043D4F88010D2
:103080000B43C2F88830384602B0BDE8F0813746BD
:10309000FBE61F4A936D23F080539365F9E6D368EE
:1030A00043F48013D36097E70121201DFFF7ACFCA8
:1030B000002891D007468FE7D36843F48013D3608C
:1030C0009EE70121201DFFF79FFC002898D00746AE
:1030D00096E7D36843F48013D360A5E70121201D50
:1030E000FFF792FC00289FD007469DE70221201D94
:1030F000FFF78AFC0028ABD00746A9E7022104F1BC
:103100002000FFF739FD0028A2D00746A0E700BF46
:1031100000100240024A136843F004031360704732
:103120000010024038B504460268D36823F0A003BB
:10313000D360FDF7DDFD05462368DB6813F0200F43
:1031400007D1FDF7D5FD401BB0F57A7FF4D90320F8
:1031500000E0002038BD70B50368DA6812F0400F57
:1031600002D00025284670BD04464FF0FF32DA60D9
:10317000FDF7BEFD064600252368DB6813F0400F0F
:10318000F0D1032DEED0FDF7B3FD801BB0F57A7FB3
:10319000F2D9032584F82150EEE7000010B504466B
:1031A000114BDA6822F08002DA609B6813F0200F7E
:1031B00007D1FFF7B7FF0346A0B1032384F82130FE
:1031C00010E0094A936823F020039360FFF7AAFFF9
:1031D000034610B1032384F8213003498A6842F082
:1031E00020028A60184610BD0028004038B500282B
:1031F0004AD0044690F821307BB1022384F8213074
:103200002368CA225A62236853225A622046FFF773
:10321000A2FF034630B1184638BD80F8203005F0D3
:10322000FDFAEAE72268936823F4E00323F0400301
:10323000936021688A68636820690343A069034337
:1032400013438B602368E2681A6122681369A168DE
:1032500043EA014313612046FFF7A0FF034600281D
:10326000D9D12168CA6C22F00302CA642068C26CFA
:10327000E169656929430A43C2642268FF215162FA
:10328000012284F82120C6E70123C4E7836A1A6873
:10329000D36B43F48073D3637047000070B582B082
:1032A000044600230193006802F060FB064610B15B
:1032B000304602B070BD206802F06BFB38B90123C4
:1032C000A364A36C012B0BD03546304614E00023D9
:1032D000A364206802F04AFB0028F2D00646E7E724
:1032E0000021206802F06CFB0028EDD04FF08056E2
:1032F000DEE7019B01330193019A4FF6FE739A4278
:1033000013D895B90021206802F05AFBD8B91249A8
:10331000206802F06DFB0546B8B90021206802F074
:1033200068F9C30FE5D01D46E3E7019A4FF6FE7337
:103330009A420DD810F0804F02D100236364B7E7A2
:1033400001236364B4E70646B2E74FF08056AFE767
:103350004FF08076ACE700BF000010C1F8B5846A7A
:10336000C66AAEB1074600250EE0386802F018F9CB
:103370002070C0F307236370C0F30743A370000EEF
:10338000E0700434043E0135072DEED9BC62FE62C4
:10339000F8BDF0B583B0046A466AE6B10746002579
:1033A00015E023780193627843EA02230193A2781F
:1033B00043EA02430193E27843EA026302A941F837
:1033C000043D0434043E386802F0EDF80135072D61
:1033D000E7D93C627E6203B0F0BD2DE9F04188B0D0
:1033E00004460F46FDF784FC064600230093019334
:1033F0000821206802F010FA054618B1284608B0E6
:10340000BDE8F081216D0904206802F0D9FA054673
:103410000028F3D14FF0FF330293082303933023A6
:10342000049302230593002306930123079302A923
:10343000206802F0DFF9206802F00BFB0546002847
:10344000DCD1804605E0FDF753FC801BB0F1FF3F67
:1034500043D02068426B40F22A431A420AD1436BA0
:1034600013F4001FEFD002F09BF84DF8280008F18C
:103470000108E8E7436B13F0080F25D1436B13F005
:10348000020F24D1436B13F0200F23D140F23A53A3
:103490008363019A130203F47F0343EA0263110A70
:1034A00001F47F410B4343EA12633B60009A13022D
:1034B00003F47F0343EA0263110A01F47F410B43E3
:1034C00043EA12637B6099E70825856396E7022546
:1034D000856393E72025856390E74FF000458DE7EE
:1034E00010B582B00446002100910191006802F0FD
:1034F00080F810F0007F16D169462046FFF76DFF77
:10350000034690B9019B13F4802F11D0216D09045B
:10351000206802F055FA034638B90221206802F00B
:1035200080FA034601E04FF40063184602B010BD74
:103530004FF08063F9E710B582B004460021009196
:103540000191006802F055F810F0007F16D169462D
:103550002046FFF742FF034690B9019B13F4803FDA
:1035600011D0216D0904206802F02AFA034638B907
:103570000021206802F055FA034601E04FF4006391
:10358000184602B010BD4FF08063F9E770B581B105
:103590000D460446016D0904006802F0B4FA0646BF
:1035A00008B1304670BD0021206802F022F8286082
:1035B000F7E74FF00066F4E72DE9F04186B00446E6
:1035C000A1B117461E460A4690F83430DBB2012BF3
:1035D00040F0878000238363BB19C16D8B420BD9F8
:1035E000836B43F00073836301257BE0836B43F0BF
:1035F00000638363012575E0032380F8343003689A
:103600000021D9620068C36B43F49573C363236CD4
:103610003648D862236C36485863236C9963216816
:103620004FEA46284FEA98038031206CFEF790FA63
:103630000546C8B92268D36A43F00803D362636CB5
:10364000012B00D07F024FF40071206802F0E4F8F3
:103650000346C8B1226827499163A06B1843A06351
:10366000012584F834503DE02268D36B23F4957330
:10367000D36323681F4A9A63A36B43F08043A36319
:10368000012584F834502DE04FF0FF330093CDF83E
:1036900004809023029302230393002304930123C5
:1036A00005936946206802F0A5F8012E12D98223FD
:1036B00023633946206802F0DFF898B123680D4A89
:1036C0009A63A36B1843A063012584F83450002348
:1036D000236307E0812323633946206802F0B4F8AE
:1036E000EBE70225284606B0BDE8F0813B3800082C
:1036F000F53C0008FF054000F0B587B004460029FE
:1037000041D015461E460F4690F83430DBB2012BEF
:1037100040F08780002383639319C26D934238D8A9
:10372000032380F8343003680022DA620168CB6B2F
:1037300043F01A03CB63C36B3C49D962C36B3C496A
:103740005963C36B9A63436C012B00D06D024FF435
:103750000071206802F060F8034600BB012E28D9F2
:10376000A02323632946206802F0B6F840B32368FB
:10377000304A9A63A36B1843A063012584F8345040
:10378000002323634EE0836B43F0006383630125D2
:1037900048E0836B43F000738363012542E02268B5
:1037A00024499163A06B1843A063012584F8345029
:1037B00038E0902323632946206802F075F8D5E7A6
:1037C0002268D36A43F00803D36222687602B30802
:1037D00080323946E06BFEF7BBF9054688B12268B6
:1037E000D36B23F01A03D3632368124A9A63A36B43
:1037F00043F08043A363012584F8345000232363FE
:1038000010E04FF0FF3300930196902302930023C2
:1038100003930493012305936946206801F0EAFFAE
:1038200000E00225284607B0F0BD00BF8D32000839
:10383000F53C0008FF054000704710B5846A236B13
:10384000822B11D02268D36A23F00803D362236845
:1038500040F23A529A63012384F834300023236300
:10386000204604F01EFB10BD206802F04DF8034610
:103870000028E7D0A06B1843A0632046FFF7DCFFC9
:10388000E0E7000010B4436E9B0F0B70436EC3F370
:1038900083634B7090F8673003F003038B7090F8EC
:1038A0006630CB7090F865300B7190F864304B71D6
:1038B000836E1B0DCB80B0F86A3003F00F030B72E0
:1038C000836EC3F3C0334B72836EC3F380338B724A
:1038D000836EC3F34033CB72836EC3F300330B7339
:1038E00000234B73436C002B40F08880826E40F6BF
:1038F000FC7303EA8203C26E43EA92730B61C36EE8
:10390000C3F3C2630B7590F86F3003F007034B7578
:10391000C36EC3F342538B75C36EC3F38243CB753F
:10392000C36EC3F3C2330B760B69013343650A7E62
:1039300002F00702023203FA02F242650B7A03F048
:103940000F040123A34083655B0A03FB02F3C365F5
:103950004FF400730366C36EC3F380334B76C36EBC
:10396000C3F3C6138B76C36E03F07F03CB76036F6E
:10397000DB0F0B77036FC3F341734B77036FC3F315
:1039800082638B77036FC3F38353CB77036FC3F3E8
:10399000405381F82030002381F82130B0F87220A4
:1039A00002F0010281F82220026FC2F3C03281F8D6
:1039B0002320026FC2F3803281F82420026FC2F309
:1039C000403281F82520026FC2F3003281F82620B0
:1039D000026FC2F3812281F82720026FC2F3012215
:1039E00081F82820026FC2F3460281F829200122C3
:1039F00081F82A2018465DF8044B7047012B0BD044
:103A000003680E4A9A63836B43F0805383630123F8
:103A100080F834301846EEE7836E1B0403F47C1301
:103A2000B0F86E2013430B610B6901339B024365B1
:103A3000C3654FF40073836503668CE7FF054000A0
:103A400070B590B004460123ADF81230006801F063
:103A5000B7FD00286CD0636C032B45D1636C032B3E
:103A60005DD1636C032B1DD0BDF8121021650904D4
:103A7000206802F01BF8054600285BD10021206871
:103A800001F0B7FD60660421206801F0B2FDA06678
:103A90000821206801F0ADFDE0660C21206801F0EE
:103AA000A8FD20670421206801F0A3FD000DE0645B
:103AB00005A92046FFF7E6FE00283ED1226D12043C
:103AC0000023206801F03AFF054698BB234653F8CF
:103AD000106B93E807008DE80700043494E80E00AB
:103AE000304601F041FD25E0206801F0CAFF05469F
:103AF00000BB0021206801F07CFD60670421206884
:103B000001F077FDA0670821206801F072FDE067F1
:103B10000C21206801F06DFDC4F880009EE70DF1D6
:103B20001201206801F0D7FF0546002899D001E076
:103B30004FF08065284610B070BD4FF08055F9E712
:103B400030B58BB004460023049305930693079386
:103B50000893762309930AAB13E907008DE8070061
:103B600004AB0ECB206801F0FFFC18B101252846FC
:103B70000BB030BD2268536823F480735360206813
:103B800001F016FD054608B10125F0E722685368EB
:103B900043F4807353602046FFF780FB034630B147
:103BA000012584F83450A06B1843A063DFE720465A
:103BB000FFF746FF0028DAD0012584F83450A36BC4
:103BC0000343A363D3E7C0B110B5044690F8343083
:103BD0007BB1032384F834302046FFF7B1FF03465E
:103BE00070B90022A2632263012284F834201846AF
:103BF00010BD037704F024FEEBE70123184670475D
:103C00000123F4E7436C0B60836C4B60C36C8B60E7
:103C1000036DCB60436D0B61836D4B61C36D8B6135
:103C2000036ECB610020704730B58BB004460D4663
:103C3000032380F83430436C032B1CD0B1F5805F34
:103C400008D0B1F5006F0AD079B1836B43F00063FF
:103C5000836314E0836B43F0805383630FE0FFF7CB
:103C60003FFCA36B1843A06309E0FFF764FCA36B60
:103C70001843A06303E0836B43F080538363A36B1B
:103C80003BB12368104A9A63012084F834000BB0DA
:103C900030BD63680493A3680593E36806930795B2
:103CA00063690893A36909930AAB13E907008DE8D8
:103CB000070004AB0ECB206801F056FC012384F80A
:103CC00034300020E3E700BFFF05400010B582B0AC
:103CD000044602A9002341F8043DFFF757FC18B140
:103CE0000346A06B1843A0630198C0F3432002B0C1
:103CF00010BD000010B5846A236CDB6BE26BD26BE5
:103D0000012B01D0012A16D12368104A9A63226838
:103D1000D36B23F49D73D363A36B43F08043A363FE
:103D20002046FFF7D3FF0538012808D9012384F87E
:103D30003430002323632046FFF77EFD10BD20684A
:103D400001F0E2FDA36B1843A063EFE7FF0540001D
:103D500010B5846A236840F23A529A632046FFF70E
:103D6000B5FF012384F8343000232363053801288C
:103D700005D9A36B53B12046FFF75EFD10BD206847
:103D800001F0C2FDA36B1843A063F2E7204604F0E4
:103D900080F8F3E710B5846A236840F23A529A63D8
:103DA0002046FFF793FF012384F834300023236378
:103DB0000538012805D9A36B53B12046FFF73CFD18
:103DC00010BD206801F0A0FDA36B1843A063F2E7CB
:103DD000204604F05EF8F3E738B50446056B036847
:103DE0005A6B12F4004F02D015F0080F28D15A6B0D
:103DF00012F4807F5AD04FF480729A632268D36B9A
:103E000023F4414323F03A03D3632268D36A23F0B7
:103E10000103D36215F0080F26D015F0220F12D13E
:103E2000236840F23A529A63012384F83430002325
:103E3000236315F0030F13D0204604F032F801E09D
:103E4000FFF78CFA38BD206801F05EFD03460028BC
:103E5000E6D0A26B1343A3632046FFF7EDFCDFE738
:103E6000204604F01AF8EDE715F0800FEAD015F0BF
:103E7000200F0ED115F0030FE4D12268D36A23F08E
:103E80000803D362012384F83430204604F005F897
:103E9000D8E7206801F038FD03460028EAD0A26B7D
:103EA0001343A3632046FFF7C7FCE3E75A6B12F402
:103EB000804F02D015F0080F4AD15A6B12F03A0F1A
:103EC000C0D05A6B12F0020F03D0A26B42F0020274
:103ED000A2635A6B12F0080F03D0A26B42F00802E3
:103EE000A2635A6B12F0200F03D0A26B42F02002A3
:103EF000A2635A6B12F0100F03D0A26B42F01002B3
:103F0000A26340F23A529A632268D36B23F49D7302
:103F1000D363206801F0F8FCA36B1843A06315F08D
:103F2000080F19D115F0800F8CD015F0300F1CD16F
:103F300015F0030F26D0236C174A9A63206CFDF707
:103F400042FE00283FF47EAF206CFFF723FF79E7A5
:103F50002046FFF71EFA75E7012384F8343000236A
:103F600023632046FFF768FC6CE7E36B0B4A9A6318
:103F7000E06BFDF728FE00283FF464AFE06BFFF72D
:103F8000E7FE5FE70023A363012284F83420236364
:103F9000204603F07EFF55E7953D0008513D00089F
:103FA000F8B505460F4616461C462B689B6837EA4F
:103FB00003030CBF01230023B34237D0B4F1FF3F0A
:103FC000F3D0FCF795FE069BC01AA04201D2002C4C
:103FD000EBD12A68536823F0E00353606B68B3F5B4
:103FE000827F0BD0AB6AB3F5005F14D0012385F854
:103FF0005D30002385F85C30032018E0AB68B3F532
:10400000004F02D0B3F5806FECD12A68136823F01B
:1040100040031360E6E72A68136823F40053136033
:104020002A68136843F400531360DFE70020F8BDEB
:10403000F8B507460C4615461E4602E0B6F1FF3FAE
:104040000BD13A6893682340AB423BD0B4F5C06FC4
:10405000F4D1002DF2D1137BF0E7FCF749FE069B6B
:10406000C01AB04201D2002EEBD13A68536823F057
:10407000E00353607B68B3F5827F0BD0BB6AB3F576
:10408000005F14D0012387F85D30002387F85C308F
:10409000032018E0BB68B3F5004F02D0B3F5806F82
:1040A000ECD13A68136823F040031360E6E73A68FE
:1040B000136823F4005313603A68136843F4005301
:1040C0001360DFE70020F8BD70B582B004460D46EE
:1040D000164600920B4600224FF4C051FFF7A8FF8E
:1040E000B8B900962B46002280212046FFF758FFE2
:1040F000B8B900962B4600224FF4C0612046FFF766
:1041000097FF034650B1236E43F020032366032339
:1041100004E0236E43F0200323660323184602B015
:1041200070BD236E43F0200323660323F6E70028C7
:1041300053D010B504460023836290F85D30002B05
:1041400040D0022384F85D302268136823F04003D6
:104150001360E368B3F5E06F39D90022B3F5706FEF
:1041600004D0B3F5E06F01D00021A162216B21B929
:10417000B3F5E06F2ED9022323636368A1680B4374
:1041800021690B4361690B43A16901F400710B4381
:10419000E1690B43216A0B43A06A216803430B606A
:1041A000638B03F00403616A0B43616B0B43E168AB
:1041B0000B43216813434B6000202066012384F8E1
:1041C0005D3010BD80F85C3004F0B0FBB9E74FF40F
:1041D0008052C3E701232363CFE7012070472DE915
:1041E000F04182B090F85C40012C00F0E4801E4663
:1041F000154688460446012380F85C30FCF778FDBC
:10420000074694F85D20D2B2012A09D0022001238A
:1042100084F85D30002384F85C3002B0BDE8F081A2
:10422000B8F1000F00F0B980002D00F0B880032332
:1042300084F85D3000232366C4F83880A587E587BD
:104240002364A4F84430A4F846302365E364A368EB
:10425000B3F5004F1CD023681A6812F0400F03D149
:104260001A6842F040021A60E368B3F5E06F33D990
:1042700063680BB1012D1BD1A26B23681288DA6031
:10428000A36B0233A363E38F013B9BB2E3870FE091
:104290002268136843F480431360DCE7FCF728FDD1
:1042A000C01BB04202D3B6F1FF3F7AD1002E7AD0C4
:1042B000E38F9BB2002B5BD023689A6812F0020F49
:1042C000ECD0A26B1288DA60A36B0233A363E38F96
:1042D000013B9BB2E387EBE763680BB1012D30D163
:1042E000E38F9BB2012B0BD9A26B23681288DA6093
:1042F000A36B0233A363E38F023B9BB2E38720E00F
:10430000A26B236812781A73A36B0133A363E38F44
:10431000013B9BB2E38714E0A36B1B781373A36B81
:104320000133A363E38F013B9BB2E38709E0FCF712
:10433000DFFCC01BB04202D3B6F1FF3F35D1002EE7
:1043400035D0E38F9BB29BB12268936813F0020FC4
:10435000EDD0E38F9BB2012BDED9A36B1B88D3601A
:10436000A36B0233A363E38F023B9BB2E387E8E7CF
:104370003A4631462046FFF7A7FE08B120232366C0
:10438000A36833B901932368DA6801929B680193AB
:10439000019B236E6BB9002039E7012037E701202C
:1043A00035E7032033E7032031E703202FE703201D
:1043B0002DE701202BE702202FE72DE9F843DDF858
:1043C000208090F85C40012C00F05C811D4617466F
:1043D0000E460446012380F85C30FCF789FC8146D8
:1043E00094F85D00C0B26368012814D0B3F5827FF1
:1043F00009D00223012284F85D20002284F85C2089
:104400001846BDE8F883A368002B40F02D810428EE
:1044100001D00223EEE7002E00F02881002F00F0EB
:104420002781002D00F0268194F85D30DBB2042B4B
:1044300002D0052384F85D30002323662764A4F8A6
:104440004650A4F84450A663E587A587E364236536
:10445000E368B3F5E06F01D8012D22D922685368D3
:1044600023F48053536023681A6812F0400F03D17D
:104470001A6842F040021A60E368B3F5E06F56D95B
:1044800063680BB1012D0AD1A26B23681288DA6030
:10449000A36B0233A363E38F013B9BB2E387012548
:1044A00025E02268536843F480535360DBE72368B8
:1044B0009A6812F0010F10D0B4F8462092B262B19F
:1044C000DA68236C1A80236C02332364B4F8463014
:1044D000013B9BB2A4F846300125FCF709FCA0EB98
:1044E0000900404503D3B8F1FF3F40F0C580E38F9A
:1044F0009BB22BB9B4F846309BB2002B00F0A780DA
:1045000023689A6812F0020FD1D0E28F92B2002A8B
:10451000CDD0002DCBD0A26B1288DA60A36B023312
:10452000A363E38F013B9BB2E3870025BFE763688A
:104530000BB1012D0ED1E38F9BB2012B0CD9A26BD5
:1045400023681288DA60A36B0233A363E38F023B14
:104550009BB2E387012547E0A26B236812781A73A8
:10456000A36B0133A363E38F013B9BB2E387F1E7C6
:10457000E28F92B2012A0BD9A26B1288DA60A36B88
:104580000233A363E38F023B9BB2E38700253CE049
:10459000A26B12781A73A36B0133A363E38F013B01
:1045A0009BB2E387002530E02268536843F48053D0
:1045B000536001250CE0226C1B7B1370236C0133CC
:1045C0002364B4F84630013B9BB2A4F84630012581
:1045D000FCF78EFBA0EB0900404502D3B8F1FF3F8A
:1045E0004CD1B8F1000F4BD0E38F9BB21BB9B4F89C
:1045F00046309BB25BB323689A6812F0020F04D076
:10460000E28F92B20AB1002DB2D123689A6812F0FB
:10461000010FDDD0B4F8462092B2002AD8D0B4F809
:10462000462092B2012AC6D9DA68236C1A80236C1C
:1046300002332364B4F84630023B9BB2A4F8463000
:10464000B4F846309BB2012BAED90125C0E74A46EB
:1046500041462046FFF738FD034600283FF4CAAE26
:10466000202323660123C5E60223C3E60123C1E616
:104670000123BFE60123BDE60323BBE60323B9E61E
:104680000323B7E60223BBE67047000030B585B0D0
:104690000446026850689368C3F3801149B913F067
:1046A000010F06D010F0400F03D0E36C204698476E
:1046B00008E013F0020F07D010F0800F04D0236D34
:1046C0002046984705B030BDC3F340151DB911B958
:1046D00013F4807FF6D010F0200FF3D079B194F866
:1046E0005D10C9B2032953D0216E41F00401216647
:1046F00000210091D168009191680091009965B105
:10470000216E41F001012166002102919168029120
:10471000116821F040011160029A13F4807F09D0E2
:10472000236E43F0080323660023039323689B68EA
:104730000393039B236E002BC4D02268536823F09D
:10474000E0035360012384F85D3010F0030F27D09D
:104750002268536823F003035360A36D4BB1124AE0
:104760009A63A06DFDF72FFA18B1236E43F0400352
:104770002366636D002BA5D00B4A9A63606DFDF72D
:1047800022FA00289ED0236E43F04003236699E767
:1047900000230193D368019393680193019B91E7F0
:1047A0002046FFF771FF8DE7AD47000808B5806A26
:1047B0000023A0F84630C387FFF766FF08BD10B49A
:1047C000036A046A24F001040462846924F0F0049A
:1047D00044EA021223F00A030B43826103625DF88C
:1047E000044B704710B4036A23F01003036284691A
:1047F000036A24F4704444EA023223F0A00343EA3B
:104800000113826103625DF8044B7047836823F0F3
:104810007003194341F00701816070470268D36853
:1048200043F00103D36002689168064B0B40062BEE
:1048300006D0B3F5803F03D0136843F00103136043
:1048400000207047070001007047704770477047AD
:1048500010B5044603681A6912F0020F11D0DA6825
:1048600012F0020F0DD06FF002021A6101230377DC
:1048700003689B6913F0030F79D0FFF7E6FF00236D
:10488000237723681A6912F0040F12D0DA6812F045
:10489000040F0ED06FF004021A61022323772368FD
:1048A0009B6913F4407F68D02046FFF7CEFF0023BA
:1048B000237723681A6912F0080F12D0DA6812F011
:1048C000080F0ED06FF008021A61042323772368C3
:1048D000DB6913F0030F57D02046FFF7B6FF002324
:1048E000237723681A6912F0100F12D0DA6812F0D9
:1048F000100F0ED06FF010021A610823237723687F
:10490000DB6913F4407F46D02046FFF79EFF00236B
:10491000237723681A6912F0010F03D0DA6812F0C6
:10492000010F3FD123681A6912F0800F03D0DA68B3
:1049300012F0800F3DD123681A6912F4807F03D0F2
:10494000DA6812F0800F3BD123681A6912F0400F29
:1049500003D0DA6812F0400F39D123681A6912F0D7
:10496000200F03D0DA6812F0200F37D110BDFFF707
:104970006BFF2046FFF76AFF81E72046FFF764FFE1
:104980002046FFF763FF92E72046FFF75DFF2046D2
:10499000FFF75CFFA3E72046FFF756FF2046FFF72F
:1049A00055FFB4E76FF001021A61204603F04CFD99
:1049B000B8E76FF080021A61204600F042F9BAE7CA
:1049C0006FF480721A61204600F03CF9BCE76FF08A
:1049D00040021A612046FFF73AFFBEE76FF020025F
:1049E0001A61204600F02CF9C0E700000368304A45
:1049F000904212D0B0F1804F0FD0A2F59432904285
:104A00000BD002F58062904207D002F5806290429E
:104A100003D002F59432904203D123F070034A6828
:104A20001343234A90421ED0B0F1804F1BD0A2F511
:104A30009432904217D002F58062904213D002F572
:104A4000806290420FD002F5943290420BD002F572
:104A50004062904207D002F58062904203D002F596
:104A60008062904203D123F44073CA68134323F059
:104A700080034A69134303608B68C3620B688362D7
:104A80000B4B98420FD003F5006398420BD003F50F
:104A90004063984207D003F58063984203D003F542
:104AA0008063984201D10B6903630123436170471E
:104AB000002C0140A8B110B5044690F83D305BB120
:104AC000022384F83D30211D2068FFF78FFF01236A
:104AD00084F83D30002010BD80F83C3003F078FFB2
:104AE000EEE70120704710B4846824F47F4442EA62
:104AF00003230B43234383605DF8044B704700009E
:104B000090F83C30012B64D010B50446012380F8A6
:104B10003C30022380F83D30026890682E4B034001
:104B200093600B68402B4AD013D9602B3DD01ED91F
:104B3000702B28D0B3F5005F30D1CB684A68896804
:104B40002068FFF7D0FF2268936843F480439360A6
:104B500024E0102B06D004D9202B03D0302B01D019
:104B60001CE0DBB919462068FFF750FE16E0502B19
:104B700014D1CA6849682068FFF721FE50212068D7
:104B8000FFF744FE0AE0CB684A6889682068FFF7AF
:104B9000AAFF2268936843F077039360012384F8A7
:104BA0003D30002084F83C0010BDCA684968206888
:104BB000FFF718FE60212068FFF728FEEEE7CA68BD
:104BC00049682068FFF7FBFD40212068FFF71EFEC3
:104BD000E4E70220704700BF8800FEFF90F83C30F9
:104BE000012B28D030B4012380F83C30022380F818
:104BF0003D30026853689568104CA24203D004F51A
:104C00000064A24203D123F470034C68234323F0D1
:104C100070030C68234325F08004896821435360A6
:104C200003689960012380F83D30002380F83C3010
:104C3000184630BC70470220704700BF002C01406E
:104C40007047704770470268136823F490731360CD
:104C50000268936823F00103936020238367002395
:104C600003667047704708B501680A6822F0400281
:104C70000A602022426700224266FFF7F3FF08BD68
:104C80007047000038B504460268D369116890681F
:104C900013F00F050CD113F0200F09D011F0200FE5
:104CA00006D0236E002B00F09380204698478FE0BB
:104CB000002D6FD010F0010502D111F4907F69D062
:104CC00013F0010F07D011F4807F04D0012010628F
:104CD000E26F0243E26713F0020F07D035B122689A
:104CE00002201062E26F42F00402E26713F0040F48
:104CF00007D035B1226804201062E26F42F0020250
:104D0000E26713F0080F09D011F0200F00D12DB188
:104D1000226808201062E26F0243E267E26F002A15
:104D200056D013F0200F06D011F0200F03D0236EC1
:104D30000BB120469847E26F23689B6813F0400F41
:104D400002D112F0080F1FD02046FFF77CFF236826
:104D50009A6812F0400F13D09A6822F040029A60CD
:104D6000E36E4BB11D4A9A63E06EFCF72CFF78B3FB
:104D7000E06E836B98472BE02046FFF781FF27E02A
:104D80002046FFF77DFF23E02046FFF779FF002351
:104D9000E3671DE013F4801F02D010F4800F0AD1E6
:104DA00013F0800F0ED011F0800F0BD0636E7BB12B
:104DB000204698470CE04FF480131362204600F021
:104DC00027FB05E013F0400F02D011F0400F00D197
:104DD00038BD2046FFF747FFFAE700BFE14D000866
:104DE00008B5806A0023A0F85A30A0F85230FFF7C7
:104DF00047FF08BD2DE9F048044601688368026951
:104E0000134342691343C26913430868A24A02402C
:104E100013430B602268536823F44053E1680B434B
:104E20005360A16922689D4B9A4201D0236A1943BD
:104E3000936823F430630B4393602368984A93424A
:104E400027D0984A934238D0974A93424ED0974AF7
:104E5000934261D0964A934274D0904A934200F0B4
:104E60008A8010258D4A934200F0AA80E369B3F549
:104E7000004F00F03581082D00F2BF81DFE815F00A
:104E80007F0195019F01BD01AA01BD01BD01BD01C9
:104E9000B40102F55842D2F8882002F00302032A36
:104EA00009D8DFE802F0020481060125DAE70425CB
:104EB000D8E70825D6E71025D4E702F5E632D2F880
:104EC000882002F00C020C2A0ED8DFE802F0070D51
:104ED0000D0D090D0D0D6F0D0D0D0B000025C1E71A
:104EE0000425BFE70825BDE71025BBE702F5E4323E
:104EF000D2F8882002F03002102A09D005D9202AE1
:104F000056D0302A06D10825ACE71AB90025A9E702
:104F10000425A7E71025A5E702F5E232D2F888209C
:104F200002F0C002402A09D005D9802A42D0C02A06
:104F300006D1082596E71AB9002593E7042591E7DD
:104F400010258FE702F5E032D2F8882002F4407293
:104F5000B2F5807F0BD007D9B2F5007F2CD0B2F527
:104F6000407F06D108257DE71AB900257AE7042598
:104F700078E7102576E702F5C832D2F8882002F4E7
:104F80004062B2F5806F0BD007D9B2F5006F15D033
:104F9000B2F5406F06D1082564E71AB9002561E72C
:104FA00004255FE710255DE702255BE7022559E749
:104FB000022557E7022555E7022553E7022551E769
:104FC000082D00F21D81DFE815F00C001B01140014
:104FD0001B0111001B011B011B0109004FF40040C4
:104FE00008E0FDF7CFFC28B90020D9E0FDF7D0F8A4
:104FF000F9E73048626802EB4203834200F2028123
:10500000B0EB023F00F20081082D66D8DFE805F022
:1050100005652065306565655800FDF7B3FC002522
:10502000070E0602626850082B4616EB000B47F18C
:10503000000C58466146FBF7B9FC03462846A3F529
:1050400040711D4A914200F2E1802268D360A7E0DE
:10505000560800252B46DFF864B04FF0000C1BEB20
:1050600006004CF10001FBF7A1FC03462846E6E7E9
:10507000FDF78EF80025070E0602626850082B46E1
:1050800016EB000B47F1000C58466146FBF78EFC0F
:1050900003462846D3E700BFF369FFEF00800040D6
:1050A000003801400044004000480040004C0040EF
:1050B000005000400024F400FFFC0F00000024F426
:1050C0005008002700252B4610F5000047F100018D
:1050D000FBF76CFC03462846B1E701200023AEE74E
:1050E000082D49D8DFE805F0051E2948344848480E
:1050F0003F00FDF747FC6268530803EB4003B3FB36
:10510000F2F39BB20020A3F110014FF6EF7291422F
:105110007ED89AB222F00F02C3F3420313432268EF
:10512000D3603DE0FDF740FC6268530803EB4003A9
:10513000B3FBF2F39BB20020E5E76268530803F18A
:10514000F47303F59043B3FBF2F39BB20020DAE76C
:10515000FDF71EF86268530803EB4003B3FBF2F35C
:105160009BB20020CFE76268530803F58033B3FB9E
:10517000F2F39BB20020C6E701200023C3E7FDF74E
:1051800001FC636800EB5302B2FBF3F292B2002021
:10519000A2F110014FF6EF7399423BD82368DA6011
:1051A000002222666266BDE8F088FDF7FDFB6368B9
:1051B00000EB5302B2FBF3F292B20020E8E763681F
:1051C0005A0802F5740202F51052B2FBF3F292B2E1
:1051D0000020DDE7FCF7DCFF636800EB5302B2FB65
:1051E000F3F292B20020D3E763685A0802F5004256
:1051F000B2FBF3F292B20020CAE701200022C7E717
:105200000120CDE70120CBE70120C9E70120C7E756
:105210000120C5E70120C3E7436A13F0010F06D060
:105220000268536823F40033816A0B435360436A76
:1052300013F0020F06D00268536823F48033C16A6A
:105240000B435360436A13F0040F06D0026853689F
:1052500023F48023016B0B435360436A13F0080F60
:1052600006D00268536823F40043416B0B4353603C
:10527000436A13F0100F06D00268936823F480533A
:10528000816B0B439360436A13F0200F06D00268D2
:10529000936823F40053C16B0B439360436A13F08C
:1052A000400F0AD00268536823F48013016C0B434B
:1052B0005360036CB3F5801F0BD0436A13F0800F6B
:1052C00006D00268536823F40023816C0B435360BB
:1052D00070470268536823F4C003416C0B4353606A
:1052E000EBE72DE9F04105460F4616469846069C29
:1052F0002B68DB6937EA03030CBF01230023B342A9
:105300001CD1B4F1FF3FF3D0FBF7F2FCA0EB080097
:10531000A04201D8002CEBD12A68136823F4D07383
:1053200013602A68936823F00103936020236B675E
:10533000AB67002385F87030032000E00020BDE853
:10534000F08130B583B004460023C367FBF7D0FC7F
:10535000054623681B6813F0080F0CD123681B68EF
:1053600013F0040F15D120236367A367002084F88E
:10537000700003B030BD6FF07E43009303460022FF
:105380004FF400112046FFF7ACFF0028E6D00320C1
:10539000EFE76FF07E4300932B4600224FF480012D
:1053A0002046FFF79EFF0028DDD00320E1E768B329
:1053B00010B50446436F03B3242363672268136860
:1053C00023F0010313602046FFF714FD012813D0DA
:1053D000636ABBB92268536823F490435360226820
:1053E000936823F02A0393602268136843F0010353
:1053F00013602046FFF7A5FF10BD80F8703003F062
:1054000005FBD9E72046FFF707FFE3E701207047D8
:10541000704700000B4B1B680B4AA2FB03235A0A80
:1054200041F2883303FB02F35A1E43B1416B13462A
:1054300011F0800FF8D0C5238363002070474FF030
:105440000040704710000020D34D6210154B1B68C0
:10545000154AA2FB03235A0A41F2883303FB02F3E5
:105460005A1EDBB1416B134611F0450FF8D011F411
:10547000006FF5D1436B13F0040F07D1436B13F0AA
:10548000010F07D1C5238363002070470423836382
:105490001846704701238363184670474FF0004059
:1054A000704700BF10000020D34D6210114B1B68E5
:1054B000114AA2FB03235A0A41F2883303FB02F389
:1054C0005A1E9BB1416B134611F0450FF8D011F4F1
:1054D000006FF5D1436B13F0040F03D1C523836331
:1054E0000020704704238363184670474FF0004044
:1054F000704700BF10000020D34D6210184B1B688E
:10550000184AA2FB03235A0A41F2883303FB02F331
:105510005A1EFBB1416B134611F0450FF8D011F440
:10552000006FF5D1436B13F0040F0BD1436B13F0F5
:10553000010F0BD1436B13F0400F0ED04023836358
:105540000020704704238363184670470123836358
:10555000184670474FF0004070470020704700BF6A
:1055600010000020D34D621084B010B402AC84E867
:105570000E000B46049A1343059A1343069A1343ED
:10558000079A1343039A1343426822F4FD4222F020
:105590007F021A43426000205DF8044B04B070475C
:1055A000D0F8800070470B68C0F88030002070474A
:1055B00008B5032303600220FBF7A0FB002008BD11
:1055C000006800F0030070470B6883604B688A68CE
:1055D0001343CA6813430A691343C26822F47F6203
:1055E00022F00F021343C360002070470069C0B26D
:1055F000704714304058704738B5524B1B68524CB6
:10560000A4FB03435B0A02FB03F2531E002A60D093
:10561000446B1A4614F0450FF7D014F4006FF4D120
:10562000436B13F0040F07D1436B13F0010F07D046
:105630000123836318464EE00423836318464AE03F
:105640000D460446C5238363FFF7D0FFA84201D06F
:10565000012040E000212046FFF7CBFF3B4B0340F9
:10566000D3B300283ADB10F0804F3AD110F0005F3E
:1056700039D110F0805F38D110F0006F38D110F0C0
:10568000806F38D110F0807F38D110F4000F38D1FE
:1056900010F4800F38D110F4001F38D110F4801F9F
:1056A00038D110F4802F38D110F4003F38D110F4E5
:1056B000803F38D110F4004F38D110F4804F38D1EA
:1056C00010F4005F38D110F0080F38D04FF400000C
:1056D00001E04FF0004038BD0020FCE74FF00070C3
:1056E000F9E74020F7E78020F5E74FF48070F2E714
:1056F0004FF40070EFE74FF48060ECE74FF4006088
:10570000E9E74FF48050E6E74FF40050E3E74FF449
:105710008040E0E74FF40040DDE74FF40030DAE787
:105720004FF48020D7E74FF40020D4E74FF48010E7
:10573000D1E74FF40010CEE74FF48000CBE74FF4F1
:105740008030C8E710000020D34D621008E0FFFD54
:1057500070B5264B1B68264CA4FB03435C0A41F240
:10576000883303FB04F35C1EB3B3456B234615F08B
:10577000450FF8D015F4006FF5D1436B13F0040F0B
:1057800007D1436B13F0010F07D001238363184641
:1057900024E004238363184620E016460D460446A1
:1057A000FFF724FFA84201D0012017E0C523A3631F
:1057B00000212046FFF71DFF10F4604F08D010F4C1
:1057C000804F0CD110F4004F0CD04FF4805005E006
:1057D000000C3080002001E04FF0004070BD4FF41D
:1057E0000050FBE74FF48030F8E700BF10000020C6
:1057F000D34D62100B6843624B6883628B68CA6842
:1058000013430A6913434A691343C26A22F0F70239
:105810001343C3620020704730B587B0054601913D
:105820001024029440230393002304934FF48063D5
:10583000059301A9FFF7C8FE41F2883221462846A8
:10584000FFF7DAFE07B030BD30B587B005460191ED
:105850001124029440230393002304934FF48063A4
:10586000059301A9FFF7B0FE41F288322146284690
:10587000FFF7C2FE07B030BD30B587B005460191D5
:105880001224029440230393002304934FF4806373
:10589000059301A9FFF798FE41F288322146284678
:1058A000FFF7AAFE07B030BD30B587B005460191BD
:1058B0001824029440230393002304934FF480633D
:1058C000059301A9FFF780FE41F288322146284660
:1058D000FFF792FE07B030BD30B587B005460191A5
:1058E0001924029440230393002304934FF480630C
:1058F000059301A9FFF768FE41F288322146284648
:10590000FFF77AFE07B030BD30B587B005460023FB
:1059100001930C2402944022039204934FF4806379
:10592000059301A9FFF750FE034A21462846FFF7D9
:1059300063FE07B030BD00BF00E1F50530B587B0AC
:105940000546019207240294402303930023049305
:105950004FF48063059301A9FFF736FE41F28832C8
:1059600021462846FFF748FE07B030BD10B586B087
:105970000446002301930293039304934FF480633E
:10598000059301A9FFF720FE2046FFF743FD06B06F
:1059900010BD10B586B004464FF4D57301930823AB
:1059A000029340230393002304934FF480630593F1
:1059B00001A9FFF709FE2046FFF7A0FD06B010BDC4
:1059C00030B587B0054601913724029440230393F4
:1059D000002304934FF48063059301A9FFF7F4FDBE
:1059E00041F2883221462846FFF706FE07B030BD57
:1059F00010B586B0044641F0004141F48011019198
:105A00002923029340230393002304934FF48063DC
:105A1000059301A9FFF7D8FD2046FFF747FD06B023
:105A200010BD30B587B0054601910624029440238D
:105A30000393002304934FF48063059301A9FFF7B8
:105A4000C3FD41F2883221462846FFF7D5FD07B055
:105A500030BD30B587B0054600230193332402944E
:105A60004022039204934FF48063059301A9FFF74A
:105A7000ABFD41F2883221462846FFF7BDFD07B055
:105A800030BD10B586B00446002301930222029275
:105A9000C022039204934FF48063059301A9FFF79A
:105AA00093FD2046FFF7D2FC06B010BD10B586B0BE
:105AB0000446019109230293C02303930023049316
:105AC0004FF48063059301A9FFF77EFD2046FFF7A1
:105AD000BDFC06B010BD70B586B005460E4600236D
:105AE0000193032402944022039204934FF48063B1
:105AF000059301A9FFF768FD324621462846FFF7C6
:105B000027FE06B070BD30B587B0054601910D2463
:105B1000029440230393002304934FF4806305937E
:105B200001A9FFF751FD41F2883221462846FFF7CF
:105B300063FD07B030BD0000002301330C4A9342DF
:105B400011D80269002AF8DA036943F001030361FE
:105B500000230133064A934207D8026912F0010F6D
:105B6000F7D100207047032070470320704700BF23
:105B7000400D030084B010B5044603A880E80E0071
:105B8000089B012B1CD1A36B23F48033A363E36830
:105B900023F4840323F04003E360E36823F4401319
:105BA000E3600F9B012B06D02046FFF7C5FFBDE841
:105BB000104004B07047E36843F48013E360F3E7F8
:105BC000E36843F04003E3602046FFF7B5FF0C9B1A
:105BD00023B1A36B23F48033A363E8E7A36B43F4FF
:105BE0008033A363E3E7836823F00103836000202D
:105BF000704708B5C36823F0C043C360012909D0CA
:105C000069B9C36843F08043C3603220FBF776F87C
:105C1000002008BDC36843F00053C360F5E70120CE
:105C2000F7E70000890141F0200101610023013301
:105C3000054A934205D8026912F0200FF7D10020DF
:105C400070470320704700BF400D0300102303611D
:105C500000230133054A934205D8026912F0100F60
:105C6000F7D1002070470320704700BF400D0300AC
:105C7000D0F800381943C0F8001800207047000021
:105C800084B02DE9F041044607A880E80E002546BF
:105C9000002306E003F1400204EB82020021516080
:105CA00001330E2BF6D9119B5BBBA36B23F40013BE
:105CB000A363236843F040032360236843F0800319
:105CC00023600023C4F8003E04F50066D4F80038D1
:105CD000C4F8003803212046FFF7CAFF10212046F0
:105CE000FFF7A0FF804608B14FF001082046FFF7FC
:105CF000ADFF08B14FF00108002333617361F36118
:105D00000FE0A36B43F40013A363DAE7C3B94FF0CA
:105D10000060C2F8000900220A614FF67F328A60F3
:105D200001330799994210D905EB431202F510612E
:105D3000D2F800090028E9DB0020C2F80009EAE7F0
:105D40004FF09040C2F80009E5E700230AE0BBB13C
:105D50004FF09047C2F8007B002202614FF67F327D
:105D600082600133994210D905EB431202F530608D
:105D7000D2F8007B002FEADB0027C2F8007BEBE7BC
:105D80004FF00067C2F8007BE6E7336923F48073C5
:105D900033610023A3616FF080436361A36943F023
:105DA0001003A361A2690C4B1343A3610D9B1BB1AC
:105DB000A36943F00803A361119B012B04D0404663
:105DC000BDE8F04104B07047A36943F0804343F05D
:105DD0000403A361F3E700BF00383C8008B5D0F8A6
:105DE000043843F00203C0F804380320FAF786FFB2
:105DF000002008BD104B5B7ADBB930B40E4B5D7AE6
:105E0000EDB200245C555D7A03EB85056860587A35
:105E1000184402725A7AD2B2501CC0B25872303250
:105E20000A703A234B702F238B70CC70204630BC05
:105E300070470120704700BF3400002008B50022E1
:105E4000FFF7D8FF08BD842801D003307047002039
:105E50007047EFF30580003018BF0120704708B588
:105E600000F0D0FD002008BD08B501F039F8012888
:105E700001D0012008BD0020FCE708B5FFF7E9FFCD
:105E800010B900F003FE08BD00F006FEFBE7F0B518
:105E900085B00F46446805680669B0F90800FFF749
:105EA000D2FF03AB019300903B46B2B22946204695
:105EB00000F076FD012802D1039805B0F0BD002066
:105EC000FBE708B5034600B90123184600F0ECFED5
:105ED000002008BD08B500224168006800F0BEF946
:105EE00008BD000030B585B004460191002303933E
:105EF000154602B90125FFF7ACFF98B1002303AAAC
:105F000001A9204600F08CFA012818D1039BC3B1E7
:105F10000D4B4FF080521A60BFF34F8FBFF36F8F5E
:105F2000002008E000232A4601A9204600F0BAF923
:105F3000012802D1002005B030BDFF20FBE7FF2083
:105F4000F9E70020F7E700BF04ED00E070B584B08A
:105F5000044602910023019349B10D4616460023E1
:105F60000393B2F1FF3F0BD062B91E460AE004ABC7
:105F7000802243F8102D93E8070084E807002AE008
:105F80004FF0FF36FFF765FFB0B103AA01A928461D
:105F900000F058FB01280CD000230093039BABB109
:105FA000114B4FF080521A60BFF34F8FBFF36F8FCA
:105FB0000CE010230093F1E7324601A9284600F0D7
:105FC00095FA01280AD066B9002300936B4693E83E
:105FD000070084E80700204604B070BD102300933A
:105FE000F4E74023F1E700BF04ED00E000F108030F
:105FF00043604FF0FF328260C3600361002303609F
:10600000704700230361704743684B609A688A6059
:106010009A685160996008610368013303607047B2
:1060200030B40D68B5F1FF3F02D000F1080202E084
:10603000026904E01A4653681C68AC42FAD95368F6
:106040004B6099608A6051600861036801330360A6
:1060500030BC70470369426881689160826841681A
:1060600051605A68824206D0002202611A68013AE1
:106070001A601868704782685A60F5E710B50446E0
:1060800001F000F8A26BE36B9A4204D0002401F007
:106090001BF8204610BD0124F9E710B5044600F0B6
:1060A000F1FFA36B23B1002401F00EF8204610BDD0
:1060B0000124F9E770B504461646856B026C5AB99F
:1060C00003681BB100200135A56370BD406800F076
:1060D00017FF00236360F6E76EB9806802F01CFECC
:1060E000226CA3681344A3606268934219D32368A7
:1060F000A3600020E7E7C06802F00EFE226C524267
:10610000E3681344E36021688B4202D263681A4457
:10611000E260022E01D00020D5E725B1013D00202C
:10612000D1E70020CFE70020CDE7026C72B110B5B7
:10613000C3681344C3604468A34201D30368C360C7
:106140000C46C168204602F0E7FD10BD704738B527
:10615000054600F097FF95F8454064B203E000F073
:10616000B7FE013C64B2002C08DD6B6A33B105F167
:10617000240000F021FE0028F3D0F0E7FF2385F88B
:10618000453000F0A1FF00F07DFF95F8444064B277
:1061900003E000F09DFE013C64B2002C08DD2B6999
:1061A00033B105F1100000F007FE0028F3D0F0E74E
:1061B000FF2385F8443000F087FF38BD38B540B97B
:1061C0004FF0500383F31188BFF36F8FBFF34F8FEE
:1061D000FEE704460D4600F055FF2168E26B236C94
:1061E00003FB021060600020A063A160013A02FB83
:1061F0000313E360FF2384F8443084F84530A5B9E5
:1062000023691BB900F060FF012038BD04F11000C4
:1062100000F0D2FD0028F5D0084B4FF080521A60F4
:10622000BFF34F8FBFF36F8FECE704F11000FFF760
:10623000DDFE04F12400FFF7D9FEE3E704ED00E002
:1062400010B5029B0C4639B11A60D8631C64012159
:106250001846FFF7B3FF10BD1B60F6E740B94FF0DB
:10626000500383F31188BFF36F8FBFF34F8FFEE7A7
:10627000F0B583B0054611B101FB00F000E000204D
:1062800017460C46483001F0A1F8064638B1009098
:106290003B4600F1480221462846FFF7D1FF304631
:1062A00003B0F0BDF0B585B0019260B1044699B974
:1062B000026C8AB14FF0500383F31188BFF36F8FE4
:1062C000BFF34F8FFEE74FF0500383F31188BFF306
:1062D0006F8FBFF34F8FFEE7022B0BD1E26B012ACA
:1062E00008D04FF0500383F31188BFF36F8FBFF3D3
:1062F0004F8FFEE71E460F4600F0F2FD50B9019B9E
:1063000053B14FF0500383F31188BFF36F8FBFF386
:106310004F8FFEE700253AE0002538E03246394647
:106320002046FFF7C7FE636A4BB9A8B13B4B4FF05D
:1063300080521A60BFF34F8FBFF36F8F0CE004F1F0
:10634000240000F039FD38B1344B4FF080521A6010
:10635000BFF34F8FBFF36F8F00F0B6FE012005B083
:10636000F0BD00F0B1FE0020F9E702A800F066FDE4
:10637000012519E0002384F8443021E0002384F84B
:10638000453023E02046FFF7E2FE00F015FC00F068
:1063900079FEA26BE36B9A42C0D3022EBED0019B62
:1063A000002BDED0002DE0D000F08EFE00F064FB6C
:1063B00000F068FE94F844305BB2B3F1FF3FD9D0EF
:1063C00094F845305BB2B3F1FF3FD7D000F07CFECC
:1063D00001A902A800F03CFDC8B92046FFF74EFE17
:1063E0000028CFD0019904F1100000F0CBFC20462A
:1063F000FFF7ADFE00F0E0FB0028C8D1074B4FF0DF
:1064000080521A60BFF34F8FBFF36F8FBFE72046F4
:10641000FFF79DFE00F0D0FB0020A0E704ED00E0B8
:106420002DE9F84360B1044699B9006C88B14FF08A
:10643000500383F31188BFF36F8FBFF34F8FFEE7D5
:106440004FF0500383F31188BFF36F8FBFF34F8F6B
:10645000FEE7022B0BD1E06B012808D04FF0500370
:1064600083F31188BFF36F8FBFF34F8FFEE71F4693
:106470009046894600F02CFFEFF311864FF0500351
:1064800083F31188BFF36F8FBFF34F8FA26BE36B62
:106490009A4203D3022F01D000200FE094F8455018
:1064A0006DB23A4649462046FFF704FEB5F1FF3F7C
:1064B00008D06B1C5BB284F84530012086F311884C
:1064C000BDE8F883636A5BB104F1240000F074FC5A
:1064D00040B1B8F1000F07D00120C8F80000EDE787
:1064E0000120EBE70120E9E70120E7E7F0B585B0FF
:1064F000019260B1044699B9036C8BB14FF050031F
:1065000083F31188BFF36F8FBFF34F8FFEE74FF018
:10651000500383F31188BFF36F8FBFF34F8FFEE7F4
:106520000F4600F0DDFC50B9019B53B14FF0500312
:1065300083F31188BFF36F8FBFF34F8FFEE7002601
:106540003EE000263CE039462046FFF7EEFD013DE7
:10655000A563236923B900F0B7FD012005B0F0BDA4
:1065600004F1100000F028FC0028F4D0344B4FF068
:1065700080521A60BFF34F8FBFF36F8FEBE700F0CD
:10658000A3FD0020EAE702A800F058FC012621E064
:10659000002384F8443029E0002384F845302BE0C0
:1065A0002046FFF7D4FD00F007FB09E02046FFF787
:1065B000CEFD00F001FB2046FFF76FFD00283DD126
:1065C00000F060FDA56B002DBDD1019B002BD6D046
:1065D000002ED8D000F078FD00F04EFA00F052FD09
:1065E00094F844305BB2B3F1FF3FD1D094F845301A
:1065F0005BB2B3F1FF3FCFD000F066FD01A902A866
:1066000000F026FC0028D1D12046FFF746FD0028E7
:10661000C6D0019904F1240000F0B4FB2046FFF736
:1066200096FD00F0C9FA0028CAD1054B4FF0805200
:106630001A60BFF34F8FBFF36F8FC1E700208DE764
:1066400004ED00E02DE9F84360B1044699B9036C0C
:106650008BB14FF0500383F31188BFF36F8FBFF3FB
:106660004F8FFEE74FF0500383F31188BFF36F8F16
:10667000BFF34F8FFEE71746894600F029FEEFF380
:1066800011864FF0500383F31188BFF36F8FBFF370
:106690004F8FD4F83880B8F1000F1DD094F84450D3
:1066A0006DB249462046FFF740FD08F1FF33A36372
:1066B000B5F1FF3F05D06B1C5BB284F8443001207C
:1066C0000BE023696BB104F1100000F075FB50B1D1
:1066D0005FB10120386000E0002086F31188BDE83A
:1066E000F8830120F9E70120F7E70120F5E7000032
:1066F000074B9B6A1B6833B1054B9A6AD268D26814
:106700005268DA627047024B4FF0FF32DA6270472C
:106710004000002010B50446006B00F0D1FE20467A
:1067200000F0CEFE10BD2DE9F04780469946089D49
:10673000099F0A9C266B02F18042013A06EB820611
:1067400026F0070600230F2B07D8C85CE21882F852
:106750003400CA5C0AB10133F5E7002384F8433002
:10676000062D00D90625E56265644FF0000AC4F8DD
:1067700048A0201DFFF745FC04F11800FFF741FC7D
:106780002461C5F10705A5616462C4F84CA084F8D2
:1067900050A04A464146304600F048FC206007B110
:1067A0003C60BDE8F087000070B5002407E004EB12
:1067B0008402930010481844FFF718FC0134062C9B
:1067C000F5D90E4C04F1BC063046FFF70FFC04F17E
:1067D000D0052846FFF70AFC04F11400FFF706FC79
:1067E00004F1E400FFF702FC2046FFF7FFFBA6627E
:1067F000C4F8F85070BD00BF7000002040000020B9
:1068000038B5054600F03EFC264BD3F8FC2001329B
:10681000C3F8FC20D3F8003173B1224BD3F8043114
:106820008BB9204BD3F80031DA6AEB6A9A420AD866
:106830001C4BC3F8005106E01A4BC3F80051D3F8C3
:10684000FC30012B2AD0174CD4F808310133C4F89E
:106850000831EB6A01229A40D4F80C110A43C4F8BB
:106860000C2104F1300003EB83039A00291D10442E
:10687000FFF7CAFB00F028FCD4F804316BB1D4F860
:106880000031DA6AEB6A9A4207D2074B4FF0805226
:106890001A60BFF34F8FBFF36F8F38BDFFF784FFD0
:1068A000D1E700BF4000002004ED00E038B517E05C
:1068B00000F0E8FB0D4CD4F8F030DD68281DFFF740
:1068C000C9FBD4F8FC30013BC4F8FC30D4F81031DB
:1068D000013BC4F8103100F0F7FB2846FFF71AFF20
:1068E000024BD3F81031002BE2D138BD400000201C
:1068F00008B5FFF7DBFF064B1B6B012BF9D9054BE6
:106900004FF080521A60BFF34F8FBFF36F8FF0E7E5
:106910004000002004ED00E070B504460E461F4B19
:10692000D3F81451D3F800010430FFF793FB60B99A
:106930001A4BD3F80021D16A012202FA01F1D3F8EF
:106940000C2122EA0102C3F80C21B4F1FF3F12D05E
:106950002C44124BD3F800315C60A54214D80F4D83
:10696000A86AD5F800110431FFF75AFBEB6AA3427D
:1069700012D9EC6210E0002EEAD00848D0F80011DD
:106980000431FFF741FB07E0044BD3F8F800D3F8DC
:1069900000110431FFF744FB70BD00BF4000002030
:1069A0002DE9F04385B00746884615469946900084
:1069B00000F00CFDF8B10646542000F007FD044637
:1069C000A8B10663D4B10023039302940D9B0193F5
:1069D0000C9B00934B462A4641463846FFF7A3FEE0
:1069E0002046FFF70DFF012005B0BDE8F0833046DB
:1069F00000F066FDE6E74FF0FF30F5E74FF0FF30BF
:106A0000F2E7000000B583B0174B01930023009319
:106A10004FF4006215491648FFF7C2FF012805D060
:106A2000B0F1FF3F17D003B05DF804FB4FF0500307
:106A300083F31188BFF36F8FBFF34F8F0D4B4FF070
:106A4000FF32DA620122C3F804210022C3F81421C4
:106A500000F0BAFBE7E74FF0500383F31188BFF370
:106A60006F8FBFF34F8FFEE75C010020D08D0008D1
:106A7000F168000840000020034AD2F818310133C1
:106A8000C2F81831704700BF40000020014BD3F816
:106A9000140170474000002008B500F019FC024BBB
:106AA000D3F8140108BD00BF400000202DE9F041DB
:106AB000404BD3F81831002B6CD13E4BD3F8145116
:106AC0000135C3F81451CDB99B6A1B6843B14FF02F
:106AD000500383F31188BFF36F8FBFF34F8FFEE72F
:106AE000344B9A6AD3F8F8109962C3F8F820D3F8B7
:106AF00020210132C3F82021FFF7FAFD2D4BDB6A7C
:106B0000AB423DD900242B4AD2F80031DB6A03EBBB
:106B1000830399000A44136B012B42D9012440E0FE
:106B20000124244B9B6A1B6863B3224B9B6ADB687E
:106B3000DE6873689D422AD306F104084046FFF7D9
:106B400089FAB36A1BB106F11800FFF783FAF36AFA
:106B500001229A40174FD7F80C110A43C7F80C21AD
:106B600007F1300003EB83039A0041461044FFF71E
:106B70004BFAF26AD7F80031DB6A9A42D0D2D0E7FA
:106B80000024CEE70B4B4FF0FF32DA62BBE7094A35
:106B9000D362B8E7074AD2F824310133C2F824316E
:106BA0000024044BD3F8283103B101242046BDE86A
:106BB000F08100BF40000020394BD3F8183143B9B1
:106BC0004FF0500383F31188BFF36F8FBFF34F8FE4
:106BD000FEE770B500F056FA314BD3F81821013AB0
:106BE000C3F81821D3F81831002B54D12C4BD3F80B
:106BF000FC3023B9002400F067FA204670BD002461
:106C0000274B5B692BB3264D2B6ADC6804F1180017
:106C1000FFF720FA261D3046FFF71CFAE36A01222F
:106C20009A40D5F80C110A43C5F80C2105F1300043
:106C300003EB83039A0031461044FFF7E5F9E26A5B
:106C4000D5F80031DB6A9A42DAD30122C5F828214F
:106C5000D6E70CB1FFF74CFD114BD3F8244164B1DA
:106C6000FFF724FF18B10E4B0122C3F82821013C85
:106C7000F6D10B4B0022C3F82421094BD3F828315D
:106C80005BB1084B4FF080521A60BFF34F8FBFF3D8
:106C90006F8F0124AFE70024ADE70024ABE700BF0E
:106CA0004000002004ED00E010B5B0B104460F4BE9
:106CB000D3F8183143B14FF0500383F31188BFF379
:106CC0006F8FBFF34F8FFEE7FFF7D6FE0021204600
:106CD000FFF722FEFFF770FF38B9054B4FF08052E7
:106CE0001A60BFF34F8FBFF36F8F10BD40000020BD
:106CF00004ED00E0224BD3F8183123B1204B0122E0
:106D0000C3F8282170471E4A0023C2F82831D2F860
:106D10000C31B3FA83F3DBB2C3F11F0303EB83003F
:106D200081000A44126B42B94FF0500383F311887B
:106D3000BFF36F8FBFF34F8FFEE710B4104A990077
:106D4000CC18A0001044446B64684463303219448A
:106D500088000830024494420BD0094903EB8303B6
:106D60009A000A44536BDB68C1F800315DF8044BAC
:106D7000704761680248142202FB03025163ECE78A
:106D80004000002040B94FF0500383F31188BFF357
:106D90006F8FBFF34F8FFEE710B50C46054BD3F84E
:106DA00000111831FFF73CF901212046FFF7B4FD2F
:106DB00010BD00BF4000002038B5C368DC6844B98E
:106DC0004FF0500383F31188BFF36F8FBFF34F8FE2
:106DD000FEE704F118052846FFF73CF9154BD3F8F8
:106DE000183103BB251D2846FFF734F9E36A01215A
:106DF0009940104AD2F80C010143C2F80C1130320C
:106E000003EB8303980029461044FFF7FDF8E26A7C
:106E1000084BD3F80031DB6A9A4209D90120054BAF
:106E2000C3F8280138BD29460348FFF7EDF8EEE71F
:106E30000020F7E74000002054000020034BD3F867
:106E400020210260D3F814314360704740000020D5
:106E5000F8B550B1054689B94FF0500383F3118856
:106E6000BFF36F8FBFF34F8FFEE74FF0500383F3F5
:106E70001188BFF36F8FBFF34F8FFEE70C4600F012
:106E800001F9124BD3F8141168680A1A2368B3F198
:106E9000FF3F17D02F680D4ED6F82061B74201D0C2
:106EA000884211D9934203D800232360012405E0CE
:106EB0009B1A23602846FFF7C1FF002400F004F965
:106EC0002046F8BD0024F9E70124F7E74000002040
:106ED000024B0122C3F82821704700BF4000002068
:106EE000064BD3F804313BB1044BD3F818310BB146
:106EF00000207047022070470120704740000020AA
:106F000000284DD038B50446284AD2F800218242E4
:106F100008D04FF0500383F31188BFF36F8FBFF396
:106F20004F8FFEE7826C42B94FF0500383F3118814
:106F3000BFF36F8FBFF34F8FFEE7013A8264C06AE1
:106F4000616C88422ED07ABB251D2846FFF782F857
:106F500078B9E26A1549142303FB02131B6B43B98A
:106F6000012303FA02F2D1F80C3123EA0203C1F83B
:106F70000C31626CE262C2F10703A361012404FADE
:106F800002F10A4BD3F80C010143C3F80C11303362
:106F90002946142000FB0230FFF736F8204638BDA2
:106FA000002070470020FAE70020F8E740000020AA
:106FB00082B0002301930D4B1B68B3F1FF3F08D053
:106FC0004FF0500383F31188BFF36F8FBFF34F8FE0
:106FD000FEE74FF0500383F31188BFF36F8FBFF3C9
:106FE0004F8F019B002BFCD002B07047080000209F
:106FF00008480068006880F308884FF0000080F3BC
:10700000148862B661B6BFF34F8FBFF36F8F00DF96
:1070100000BF000008ED00E0DFF80C00016841F45B
:10702000700101607047000088ED00E04FF0807350
:1070300040F8043C21F0010140F8081C054B40F8E1
:107040000C3C40F8202C6FF0020340F8243C4438FC
:10705000704700BFB16F0008000000000000000092
:10706000074B19680868B0E8F04F80F30988BFF350
:107070006F8F4FF0000080F311887047AFF30080EE
:10708000400100204FF0500383F31188BFF36F8F4E
:10709000BFF34F8F0A4A136801331360012B00D0EE
:1070A0007047084B1B6813F0FF0FF9D04FF05003E7
:1070B00083F31188BFF36F8FBFF34F8FFEE700BFDD
:1070C0000800002004ED00E0094B1B6843B94FF0B5
:1070D000500383F31188BFF36F8FBFF34F8FFEE729
:1070E000013B034A13600BB983F31188704700BF5B
:1070F0000800002000000000000000000000000068
:10710000EFF30980BFF36F8F154B1A681EF0100F55
:1071100008BF20ED108A20E9F04F10602DE909002A
:107120004FF0500080F31188BFF34F8FBFF36F8F84
:10713000FFF7E0FD4FF0000080F3118809BC1968EB
:107140000868B0E8F04F1EF0100F08BFB0EC108ACE
:1071500080F30988BFF36F8F704700BFAFF30080E3
:107160004001002008B54FF0500383F31188BFF3AE
:107170006F8FBFF34F8FFFF799FC18B1034B4FF0A0
:1071800080521A60002383F3118808BD04ED00E0EB
:10719000084A0023136008490B60084B1B68084924
:1071A000A1FB03139B09013B06490B6007231360F6
:1071B000704700BF10E000E018E000E01000002081
:1071C000D34D621014E000E0394B1A68394B9A42F3
:1071D0000DD0374B1A68384B9A4211D14FF05003FB
:1071E00083F31188BFF36F8FBFF34F8FFEE74FF02C
:1071F000500383F31188BFF36F8FBFF34F8FFEE708
:1072000010B582B02D4B1A78D2B20192FF221A70BB
:107210001B78DBB28DF803309DF8033003F0500388
:10722000274A13700723536009E0254A5368013B3E
:1072300053609DF803305B00DBB28DF803309DF89E
:10724000033013F0800FF0D11D4B5B68032B08D087
:107250004FF0500383F31188BFF36F8FBFF34F8F4D
:10726000FEE71B0203F4E063154A5360019BDBB2A7
:10727000124A1370134B1A6842F470021A601A68AB
:1072800042F070421A60FFF783FF00240E4B1C602F
:10729000FFF7C2FE0D4A136843F040431360FFF747
:1072A000A7FEFFF727FDFFF783FE204602B010BDC3
:1072B00000ED00E071C20F4170C20F4100E400E038
:1072C0006C01002020ED00E00800002034EF00E019
:1072D000EFF305830F2B0FD9104A9B5CDBB2104AEA
:1072E00012789A4208D94FF0500383F31188BFF304
:1072F0006F8FBFF34F8FFEE70A4B1B6803F4E06309
:10730000074A5268934208D94FF0500383F311881B
:10731000BFF36F8FBFF34F8FFEE77047F0E300E0DE
:107320006C0100200CED00E0114A12F0070F1BD099
:10733000D11D21F00701C1F57F43FF3313440A46F5
:107340000C490A60002048601344083B23F00703FF
:107350008B6058601860981A50601360C8600861AC
:107360004FF000434B6170474FF6FF73E8E700BFF3
:107370008C0100207401002010B4134B1A68824263
:107380001BD359685C18844203D14068014459609A
:10739000184641684418A24213D10B4CA468A2427B
:1073A0000DD05268114441601A6812680260984218
:1073B00000D018605DF8044B70471346DEE70460A8
:1073C000F5E70260F3E700BF7401002070B50446E2
:1073D000FFF752FB394B9B68BBB1384B5B691C42D2
:1073E00062D1ACB1083414F0070F11D024F00704B7
:1073F000083404F007035BB14FF0500383F31188A6
:10740000BFF36F8FBFF34F8FFEE7FFF78DFFE4E70A
:10741000002C4BD0294B1B69A34249D3274B1D6835
:1074200001E02B4615466A68A24202D22A68002A69
:10743000F7D1224A9268AA423CD01E6808362A68D0
:107440001A606B681B1B102B10D9281910F0070F3E
:1074500008D04FF0500383F31188BFF36F8FBFF351
:107460004F8FFEE743606C60FFF786FF6968134A41
:1074700013695B1A1361D268934201D20F4AD36039
:107480000E4B5B690B436B6000232B60FFF794FB93
:1074900016F0070F10D04FF0500383F31188BFF39D
:1074A0006F8FBFF34F8FFEE70026EFE70026EDE773
:1074B0000026EBE70026E9E7304670BD74010020A6
:1074C00080B338B50446A0F1080550F8042C1649DD
:1074D00049690A4208D14FF0500383F31188BFF382
:1074E0006F8FBFF34F8FFEE750F8080C40B14FF09D
:1074F000500383F31188BFF36F8FBFF34F8FFEE705
:1075000022EA010244F8042CFFF7B6FA54F8041CEE
:10751000054A13690B4413612846FFF72DFFFFF757
:107520004BFB38BD704700BF7401002038B1826941
:107530003AB183680BB101207047002070470020EA
:1075400070470020704738B505460C46FFF7EEFF40
:1075500020B1012C05D86C77002038BD6FF00A00EF
:10756000FBE76FF00A00F8E72DE9F04184B0074629
:10757000884614461D46FFF7D9FF002847D0B5F5C9
:10758000FF7F46D80121002001F080F8012D01D1B4
:107590007E2C20D9204E4FF400720021304601F09D
:1075A000C6FB230A43F0700333707470B869AB1CD8
:1075B00042F2107200929BB206F500723146FCF75F
:1075C000FCFE0446E0B10021084601F05FF8E0B29D
:1075D00004B0BDE8F08104F07F04ADF80E40B86956
:1075E00042F210730093022303AA0DF10E01FCF77F
:1075F000E4FEBDF80C301B0A88F800300446E2E7D0
:107600002A4606F20221404601F086FBDBE7F52020
:10761000DEE7F520DCE700BF8C01012008B501237F
:10762000FFF7A2FF08BD00002DE9F04182B0074638
:107630000E4690461C46FFF779FF00283ED0B4F571
:10764000FF7F3ED80121002001F020F8012C01D15C
:107650007E2E21D91C4D4FF400720021284601F0E6
:1076600066FB330A43F0F0032B706E7022464146EE
:10767000A81C01F051FBA21C42F2107392B22946E1
:10768000B869FCF7ACFD04460021084600F0FEFF97
:10769000204602B0BDE8F08198F8003066F07F0621
:1076A000F6B246EA032602A921F8026D42F21073EF
:1076B0000222B869FCF793FD0446E5E76FF00A047F
:1076C000E6E76FF00A04E3E78C01012010B582B011
:1076D00002AC04F8012D01232246FFF7A5FF02B0FA
:1076E00010BD30B583B004460D46FFF71FFF0028DC
:1076F00044D002220DF107012046FFF78FFFC0B9E9
:107700009DF8073003F060038DF80730082D38D856
:10771000DFE805F0090511161B20252A2F0043F08C
:1077200001038DF807309DF8072002212046FFF75E
:10773000CDFF03B030BD43F005038DF80730F2E70D
:1077400043F007038DF80730EDE743F008038DF8A9
:107750000730E8E743F009038DF80730E3E743F02B
:107760000B038DF80730DEE743F00C038DF807308C
:10777000D9E743F00D038DF80730D4E76FF00A0026
:10778000D7E76FF00A00D4E730B583B00546FFF7BE
:10779000CDFE002844D000242C772146204600F05E
:1077A00075FF0A20FEF78DFB0121204600F06EFFD9
:1077B0000A20FEF786FB2146204600F067FF0A20DC
:1077C000FEF77FFB80228DF8072002212846FFF775
:1077D0007DFF034610B1184603B030BD0A20FEF706
:1077E00070FB02220DF107012846FFF717FF034641
:1077F0000028F0D19DF8072002F060028DF80720E4
:1078000002212846FFF762FF03460028E3D10A2041
:10781000FEF757FB21462846FFF763FF0346DAE7EA
:107820006FF00A03D7E710B50446FFF77FFE18B3E1
:10783000637F23B1012B0DD06FF00A0308E0002213
:1078400042F0090230212046FFF740FF034618B1FD
:10785000184610BD8022F3E7082231212046FFF7A9
:1078600035FF03460028F3D100224FF4C2712046B1
:10787000FFF72CFF0346EBE76FF00A03E8E710B5CC
:107880000446FFF753FEF0B199224FF4C071204631
:10789000FFF71CFF0346A0B9082201E00132D2B273
:1078A000A368D34042F210718B42F7D80F2A28BF49
:1078B0000F22083AD2B240F283112046FFF706FFAA
:1078C0000346184610BD6FF00A03FAE770B582B0A0
:1078D000044600238DF80730FFF728FE80B3637F4E
:1078E00023B1012B0FD06FF00A0609E033251822CF
:1078F0008DF8072029462046FFF7E8FE064620B10E
:10790000304602B070BD3B25F1E70A20FEF7D9FAF8
:1079100000238DF807309DF8073013F0100F09D1C0
:107920002A460DF107012046FFF778FE0028F2D025
:107930000646E5E713F0200FE2D06FF00D06DFE713
:107940006FF00A06DCE738B50446FFF7EFFDE0B15B
:10795000082210212046FFF7B9FE054608B1284647
:1079600038BD03224FF4B0712046FFF7AFFE054645
:107970000028F4D1072211212046FFF7A7FE142288
:1079800012212046FFF7A2FEE9E76FF00A05E6E7BD
:1079900000B583B0130A8DF804308DF8052002235A
:1079A00001AAFFF741FE03B05DF804FB00B583B008
:1079B000130C8DF80430130A8DF805308DF806206D
:1079C000032301AAFFF730FE03B05DF804FB0000BB
:1079D000D0B52DED028B82B004460191FFF7A6FDD4
:1079E000002848D0DDED017AB8EE678AD4ED027A3E
:1079F000B8EE677AC8EE077A9FED207A67EE877A4D
:107A0000FCEEE77A17EE902A42F0010240F265118F
:107A10002046FFF7CBFF034620B1184602B0BDEC6D
:107A2000028BD0BD019B236118EE100AF8F734FDDC
:107A30000022134BF8F788FD06460F46D4ED027A74
:107A4000F8EE677A17EE900AF8F726FD02460B4625
:107A500030463946F8F7A2FE00220A4BF8F774FDCB
:107A6000F8F784FF40F0010240F261112046FFF771
:107A70009DFF0346D1E76FF00A03CEE70000804B7D
:107A80000000E03F0000704100B583B0130E8DF898
:107A90000430130C8DF80530130A8DF806308DF87C
:107AA000072004230DEB0302FFF7BEFD03B05DF8D2
:107AB00004FB00002DE9F04104460E46FFF736FDB9
:107AC000002875D0A27F32B1012A13D06FF00A05C9
:107AD0002846BDE8F081394B334439498B4215D9EA
:107AE000384B334438498B4201D804270FE06FF0FC
:107AF0000A05EDE7354B334435498B4248D9354BC0
:107B0000334435498B4256D8042700E00027D4F887
:107B1000008047EA021202F0F40232212046FFF709
:107B2000D5FD05460028D3D1A7BB082240F6347105
:107B30002046FFF7CBFD0546002DC9D107EE906A20
:107B4000F8EE676AD4ED027AB8EE677AC6EE877A05
:107B50009FED227A67EE877AFCEEE77A17EE902A9D
:107B600042F00102637FEBB934212046FFF78CFF1E
:107B70000546002DACD12660194B3344434503D84C
:107B8000184B33444345A3D22046FFF79FFE9FE79F
:107B90000027BCE7282240F634712046FFF796FD07
:107BA0000546C9E73C212046FFF76EFF0546E0E7A2
:107BB0006FF00A058CE76FF00A0589E700F850D0EE
:107BC00080B2E60E007C28E8405973078006C8FCA6
:107BD000C0E3121C400364FEE071090E0000804BFC
:107BE00040787D01C08782FE10B50446FFF71BFE7A
:107BF000034608B1184610BD4FF416512046FFF752
:107C0000E7FE03460028F5D127492046FFF752FF3B
:107C100003460028EED102224FF4B2712046FFF74E
:107C200055FD03460028E5D10F224FF47061204630
:107C3000FFF74CFD034650B1002BDBD14FF400722F
:107C40004FF4B5712046FFF7A3FE0346D2E70022AA
:107C500040F60C712046FFF739FD03460028EBD1B2
:107C6000002240F611712046FFF730FD0346002840
:107C7000E2D1072240F61C712046FFF727FD03469C
:107C80000028D9D1242240F644712046FFF71EFD7A
:107C900003460028D0D1062240F618712046FFF78F
:107CA00015FD0346C8E700BF206DC719002800F086
:107CB0009C80F0B583B00446002900F099801E46F0
:107CC00017460D462022002101F031F8012E00F266
:107CD0009380A677A56100232377FF236377A760AE
:107CE000474B9F4210D90223237300220DF1070155
:107CF0002046FFF793FC034600287AD19DF8073011
:107D0000512B04D0F32374E001232373EDE7AA225F
:107D10008DF8062001212046FFF7D8FC08B1C3B238
:107D200067E002A9002301F8023D01222046FFF787
:107D300075FC034600285CD19DF80630AA2B01D0C3
:107D4000F32356E02046FFF71FFD08B1C3B250E011
:107D50002046FFF794FD58B9237B012B0AD011224E
:107D600040F635712046FFF7B1FC50B1C3B240E098
:107D7000C3B23EE0102240F635712046FFF7A6FC64
:107D8000F3E70D224FF40C712046FFF79FFC08B17A
:107D9000C3B22EE000212046FFF7D5FB08B1C3B2E5
:107DA00027E02046FFF7CFFD08B1C3B221E020460F
:107DB000FFF71AFF08B1C3B21BE0124BC3F800492A
:107DC000089AC3F8FC2880222E212046FFF7E0FD08
:107DD000402206212046FFF7DBFD01220921204633
:107DE000FFF774FC50B1C3B203E0F52318467047A7
:107DF000F523184603B0F0BDF523FAE70023F8E7B2
:107E0000006B7A018C01012008B501F001022721E5
:107E1000FFF75CFC08BD072B0CD808B5920102F0F7
:107E200040021A4352B242EAC112D2B22521FFF7F0
:107E30004DFC08BD6FF00A007047000008B51346FE
:107E40000A4601460248FBF7B7FB00B1012008BD16
:107E50009813012008B513460A4601460248FBF76D
:107E60004BFC00B1012008BD9813012008B5034860
:107E7000FBF72CFF043818BF012008BD9813012020
:107E800008B501460148FBF7BDFE08BD9813012067
:107E9000704708B5FFF7FCFF08BD08B500F0DEFB32
:107EA00008BD08B500F0E6FB08BD00B583B00123AE
:107EB0008DF8073000F032F810B900238DF8073044
:107EC0009DF8070003B05DF804FB000010B5FFF754
:107ED000ECFF012802D00224204610BD0748FBF722
:107EE00072FE04460028F7D14FF400610348FBF707
:107EF0009BFE0028F0D00124EEE700BF981301207C
:107F000008B503490348FDF799FF034B187008BDF6
:107F10009C0A0120748D0008980A012008B51021E0
:107F20004FF09040F9F7C4FF08B1002008BD0120D0
:107F3000FCE70000054B064A1A6000225A609A606E
:107F4000DA601A615A619A61704700BF9813012084
:107F500000280140F0B58BB00024059406940794E6
:107F6000089409943F4BDA6C42F00402DA64DA6C4C
:107F700002F004020192019ADA6C42F00102DA6422
:107F8000DA6C02F001020292029ADA6C42F002020A
:107F9000DA64DA6C02F002020392039ADA6C42F0BD
:107FA0000802DA64DB6C03F008030493049B2246A6
:107FB00040214FF09040F9F782FF2B4E224640219E
:107FC0003046F9F77CFF01224FF4A0614FF090405A
:107FD000F9F775FF102305930694079405A94FF050
:107FE0009040F9F77BFE402705970125069502236F
:107FF0000793089405A94FF09040F9F76FFE80238E
:1080000005931A4B0693079405A94FF09040F9F792
:1080100065FE059706950794089405A93046F9F77B
:108020005DFE4FF48073059306950794089405A9A7
:108030004FF09040F9F752FE4FF480630593069598
:108040000795089405A94FF09040F9F747FE22469E
:1080500005211720F9F730FC1720F9F761FC0BB068
:10806000F0BD00BF001002400008004800001110E1
:1080700010B582B0174B9A6C42F001029A649A6C68
:1080800002F001020092009A9A6C42F002029A6495
:108090009B6C03F002030193019B0F480F4B03609D
:1080A000002444604FF4804383604023C3608023F6
:1080B000036144618461C4610462F9F7CDFC224626
:1080C00005213C20F9F7F8FB3C20F9F729FC02B028
:1080D00010BD00BF00100240A4140120080002409F
:1080E00008B50648064B03600023037143714361E2
:1080F000836101230362F9F721FC08BD7413012099
:108100000030024008B50E480E4B03604FF48273F6
:108110004360002383604FF4E062C2600361436107
:108120004FF4007282612822C2610362436283625B
:108130000722C26203634363FBF7F9FF08BD00BF78
:10814000080F01200038004008B50B480B4B0360B6
:108150001023436000238360C3604FF44032026108
:108160004FF480024261037643768376C3760377C9
:108170004377F9F7AFF908BDCC1501200064004042
:1081800030B589B0002404940594069407940194B2
:10819000029403940F4D4FF080432B604BF68033D5
:1081A0006B60AC604FF0FF33EB602C61AC61284634
:1081B000FCF780FC4FF48053049304A92846FCF795
:1081C0009FFC0194039401A92846FCF707FD09B020
:1081D00030BD00BF0C15012008B50948094B0360EC
:1081E0004FF4E133436000238360C36003610C22DA
:1081F00042618361C36103624362FDF7D8F808BD41
:108200004C1501200044004070B58AB0002407944A
:108210000894099401940294039404940594069498
:10822000164D174B2B606C60AC60EC602C61042623
:108230006E612C766C760123EB6185F82040AC6290
:10824000EC6285F830406C6385F838402846F8F7D2
:1082500069FD079407A92846F9F798F8094B019397
:108260000623029303947F230493059606940DEB53
:1082700006012846F8F762FE0AB070BD1C14012002
:10828000000004502000F01408B50848084B0360B3
:10829000002343607F228260FF22C260036143614A
:1082A0008361C361FAF7A2FF08BD00BF80140120FB
:1082B0000028004008B50A484FF0A0430360062399
:1082C00043600223C36083610023C361036243628E
:1082D000012282620363C262F9F706FE08BD00BF95
:1082E0006C0F012008B5FFF70BFE41F28830FDF757
:1082F000E8FD074C01212046FFF786FD41F288305A
:10830000FDF7DFFD00212046FFF77EFDEDE700BF12
:10831000EC140120F0B5B9B04422002127A800F0E8
:1083200006FD0024229423942494259426948822E4
:108330002146684600F0FBFCF9F782FE244AD2F899
:10834000903023F01803C2F89030142327930125AE
:1083500029952D952E9460232F93022631963295E0
:10836000339510233493072735973696379627A8E9
:10837000F9F768FF0F232293032323932494259472
:108380002694294622A8FAF74BFA124B00930F9431
:108390004FF080531E934FF4807321934FF080630E
:1083A0001B931C930195029518230393049705963C
:1083B00006964FF0887307936846FAF783FC4FF4EC
:1083C0000070F9F74DFEFAF7A5FE39B0F0BD00BF19
:1083D0000010024002600A0030B587B0F8F766FC72
:1083E000FFF798FFFFF7B6FDFFF742FEFFF778FEB5
:1083F000FFF788FEFFF79EFDFFF7A6FEFFF7C0FE22
:10840000FFF7EAFEFFF700FFFFF73EFFFFF752FF1F
:1084100009490A4800F02CF801AC094D0FCD0FC4F2
:108420002B682360002101A8FDF731FD054B186082
:10843000FDF715FDFEE700BF080F0120EC14012039
:10844000588D0008040F012008B50268034B9A42BA
:1084500000D008BDF8F740FCFBE700BF002C01404E
:10846000704720B108B50121FFF7CEFC08BD704769
:1084700030B583B0A8B10446B1B10D4B00930023D1
:108480000C4AFFF713FC054601212046FFF7BCFC10
:108490000123002211462046FFF7BDFC284603B009
:1084A00030BD4FF0FF35F9E74FF0FF35F6E700BF7D
:1084B0006384000880BA8C0108B5074B01221A704A
:1084C000FFF7D4FC20B9044A137803F0FE031370BD
:1084D000014B187808BD00BF0C00002010B582B019
:1084E0000446124B01221A70FDF7BEFC18B90F4B5F
:1084F000187802B010BDFFF7E9FC88B10B4B1B7870
:10850000DBB2012BF3D00A4A6B4692E8030083E802
:10851000030000211846FDF7DDFC064B1860E6E776
:108520002046FFF7C9FF014B1870E7E70C00002059
:108530006C8D0008900A012008B5FFF7BDFF08BD4B
:1085400010B584B0084611461A46FFF777FC10B103
:10855000012004B010BD47F23052104B196801A839
:10856000FDF7F4FC019B102B01D00120F1E7029BE9
:10857000012B01D00120ECE7FDF77FFC00F5EA4478
:108580003034FDF77AFCA04205D2FFF76FFC0028DB
:10859000F7D10020DDE70120DBE700BF900A0120D2
:1085A00010B584B0084611461A46FFF753FC10B1C7
:1085B000012004B010BD47F23052104B196801A8D9
:1085C000FDF7C4FC019B102B01D00120F1E7029BB9
:1085D000022B01D00120ECE7FDF74FFC00F5EA4447
:1085E0003034FDF74AFCA04205D2FFF73FFC0028DB
:1085F000F7D10020DDE70120DBE700BF900A012072
:10860000154B1B7813F0010F21D110B588B014461B
:1086100003291ED8DFE801F002050C13002008B082
:1086200010BD6846FFF72CFC069B23600020F6E790
:108630006846FFF725FC079B23800020EFE768468C
:10864000FFF71EFC079B5B0A23600020E7E703207F
:1086500070470420E3E700BF0C00002008B54FF08E
:10866000FF320221024B1868FDF73CFC08BD00BF39
:10867000900A012008B54FF0FF320121024B186823
:10868000FDF730FC08BD00BF900A012060B908B5B5
:1086900081F0010202F001024FF480614FF090403E
:1086A000F9F70DFC002008BD4FF0FF3070470000C7
:1086B00000B583B0114B1A6E42F001021A661A6EB1
:1086C00002F001020092009A9A6D42F080529A657F
:1086D0009B6D03F080530193019B00220F216FF0EB
:1086E0000100F9F7E9F8002205210846F9F7E4F856
:1086F0000520F9F715F903B05DF804FB00100240FE
:1087000000B589B000230393049305930693079360
:108710000268134B9A4202D009B05DF804FB03F1E2
:108720007043A3F5F833DA6C42F40052DA64DA6C81
:1087300002F400520192019ADA6C42F00102DA640A
:10874000DB6C03F001030293029B012303930B23D1
:10875000049303A94FF09040F9F7C0FADCE700BF9B
:108760000000045000B589B00023039304930593DF
:108770000693079302681C4B9A4202D009B05DF839
:1087800004FB03F5D6339A6D42F000729A659A6D38
:1087900002F000720192019ADA6C42F00202DA648D
:1087A000DB6C03F002030293029B4FF440730393CC
:1087B00002230493032306930923079303A90B4879
:1087C000F9F78CFA002205211320F9F775F8132028
:1087D000F9F7A6F8002205211420F9F76DF8142006
:1087E000F9F79EF8CAE700BF0064004000040048A3
:1087F0000268094B9A4200D0704782B0A3F500533B
:108800009A6C42F480529A649B6C03F480530193F7
:10881000019B02B0704700BF003002400268064B67
:108820009A4200D07047054AD2F8903043F4004392
:10883000C2F89030F6E700BF002800400010024068
:10884000F0B589B00023039304930593069307932F
:108850000268314B9A4201D009B0F0BD044603F5DD
:1088600068431A6E42F480621A661A6E02F48062DD
:108870000092009ADA6C42F00402DA64DA6C02F0D8
:1088800004020192019ADA6C42F00802DA64DB6CAD
:1088900003F008030293029B4FF4F853039302255D
:1088A0000495032706970C2607960DEB06011B4837
:1088B000F9F714FA04230393049500250595069708
:1088C00007960DEB06011648F9F708FA1548164BFE
:1088D0000360072343608560C560802303614FF414
:1088E000007343614FF400638361C5614FF44053EB
:1088F0000362F9F7B1F860B90A4B23649C62E36341
:10890000002205213120F8F7D7FF3120F9F708F8C8
:10891000A2E7FFF7A5FDEFE70028014000080048A7
:10892000000C0048F41501205804024030B589B00D
:108930000023039304930593069307930268214B46
:108940009A4201D009B030BD03F5EC339A6D42F480
:1089500080429A659A6D02F480420092009ADA6C25
:1089600042F00402DA64DA6C02F004020192019A25
:10897000DA6C42F00202DA64DB6C03F00203029369
:10898000029B0C2303930225049505950524079467
:108990000DEB03010C48F9F7A1F94FF48063039341
:1089A0000495002505950695079403A90748F9F74E
:1089B00095F92A4621462420F8F77EFF2420F8F76F
:1089C000AFFFBFE70038004000080048000400483F
:1089D0000368B3F1804F00D0704700B583B003F552
:1089E00004339A6D42F001029A659B6D03F0010316
:1089F0000193019B002205211C20F8F75DFF1C203C
:108A0000F8F78EFF03B05DF804FB000000B589B0F5
:108A10000023039304930593069307930268184B6E
:108A20009A4202D009B05DF804FB03F5E6339A6D73
:108A300042F400329A659A6D02F400320192019A72
:108A4000DA6C42F00102DA64DB6C03F0010302939A
:108A5000029B0C230393022304930323069307230F
:108A6000079303A94FF09040F9F738F90022052148
:108A70002620F8F721FF2620F8F752FFD2E700BFA3
:108A80000044004030B589B000230393049305935C
:108A9000069307930368B3F1A04F01D009B030BD2E
:108AA000214CE36C43F00103E364E36C03F0010346
:108AB0000093009B08AD4FF4007345F8143D294620
:108AC0004FF09040F9F70AF94FF4C0530393022393
:108AD000049300230593032306930A23079329464F
:108AE0004FF09040F9F7FAF8E36C43F48053E364F5
:108AF000E36C03F480530193019BA36D13F0805F3B
:108B000002D0F9F7F5FAC9E7A36D43F08053A365E6
:108B1000A36D03F080530293029BF9F7E9FAA36D6A
:108B200023F08053A365B9E70010024000B589B077
:108B3000002201461920F8F7BFFE1920F8F7F0FED1
:108B4000144B1A6E42F400621A661B6E03F4006343
:108B50000193019B02A903A8F9F738FFF9F724FF55
:108B60000D4BA3FB00239B0C013B0C480C4A0260FD
:108B700040F2E732C2604360002303618360FBF789
:108B800099FF18B1012009B05DF804FB0348FBF719
:108B900045FEF8E70010024083DE1B433C1601202F
:108BA000002C01407047000008B50248F8F745FD69
:108BB00008BD00BFCC15012008B50248F8F73DFDFF
:108BC00008BD00BFCC15012008B58020F9F77EF95B
:108BD00008BD000008B50248FBF73AFE08BD00BF1B
:108BE0003C16012008B50248FBF732FE08BD00BF65
:108BF0000C15012008B50248FBF748FD08BD00BF71
:108C0000080F012008B50248FCF73CF808BD00BF7A
:108C10004C15012008B50248FBF7DEF808BD00BF7F
:108C20009813012008B50248F8F7F5FF08BD00BF0A
:108C3000F41501200F49D1F8883043F47003C1F8CE
:108C400088300D4B1A6842F001021A6000209860CB
:108C50001A6822F0A85222F410221A604FF48052AF
:108C6000DA601A6822F480221A6098614FF000637B
:108C70008B60704700ED00E000100240DFF834D058
:108C8000002103E00C4B5B58435004310B480C4B64
:108C900042189A42F6D30B4A02E0002342F8043B02
:108CA000094B9A42F9D3FFF7C5FF00F011F8FFF71F
:108CB00093FBFEE700800120008E000800000020EA
:108CC00018000020180000207C160120FEE700009C
:108CD00070B50D4E0D4CA41BA4100025A54209D162
:108CE0000B4E0C4C00F02CF8A41BA4100025A54240
:108CF00005D170BD56F8253098470135EEE756F896
:108D0000253098470135F2E7F08D0008F08D000816
:108D1000F08D0008F48D000810B5431E0A449142FE
:108D200000D110BD11F8014B03F8014FF7E70244E1
:108D30000346934200D1704703F8011BF9E7000096
:108D4000F8B500BFF8BC08BC9E467047F8B500BF38
:088D5000F8BC08BC9E46704708
:108D5800D88D0008E582000800000000000000002F
:108D6800000800000A00000002000000DD8400087E
:108D78003985000841850008A1850008018600089A
:108D8800A0860100400D0300801A060000350C0083
:108D980040420F0080841E0000093D0000127A0046
:108DA8000024F40000366E010048E801006CDC0283
:108DB8000000000000000000010203040607080983
:108DC800000000000102030449444C450000000073
:108DD80064656661756C745461736B000000000013
:088DE800F47BFF7F0100000095
:088DF000B501000800000000BD
:088DF8009101000800000000D9
:108E00000100000010000000AAAAAAAA01000000A8
:088E100000093D000000000014
:0400000508008C7DE6
:00000001FF
